:100000000C94DB020C9413030C9413030C94130351
:100010000C9413030C9413030C9413030C94130308
:100020000C9413030C9413030C9493170C944F1714
:100030000C9490180C9413030C9413030C94130356
:100040000C9413030C9413030C9413030C941303D8
:100050000C9413030C946C180C9413030C9413035A
:100060000C9413030C9413030C9413030C941303B8
:100070000C9413030C9413030C9413030C941303A8
:100080000C9413030C9413030C9413030C94130398
:100090000C9413030C9413030C9413030C94130388
:1000A0000C9413030C9413030C941303167C1E007E
:1000B0001F0020002100220023002400250026002C
:1000C00027002D002E0049002A002B0000001400FC
:1000D0001A000800150017001C0018000C00120080
:1000E00013002F00300032003942000004001600D7
:1000F000070009000A000B000D000E000F0033007E
:10010000340028000000E10064001D001B00060010
:100110001900050011001000360037003800245285
:100120005200E500E000E3000000E20000000000F3
:100130002C00000000000000E60023525000510097
:100140004F00167C1E001F0020002100220023000B
:1001500024002500260027002D002E0049002A003B
:100160002B00000014001A000800150017001C00E6
:1001700018000C00120013002F003000320039422A
:10018000000004001600070009000A000B000D0023
:100190000E000F003300340028000000E10064006E
:1001A0001D001B000600190005001100100036009C
:1001B0003700380024525200E500E300E000000060
:1001C000E200000000002C00000000000000E6003B
:1001D0002352500051004F00017C0100010001003A
:1001E0000100010001000100010001000100010007
:1001F0000100007E017E01000000010001000100FD
:1002000001000100010001000100010001000100E6
:1002100001000100010000000100010001000100D7
:1002200001000100010001000100010001000100C6
:1002300000000100010001000100010001000100B7
:100240000100010001000100010001004B0001005C
:10025000010001000000010000000000010000009A
:1002600000000000010001004A004E004D00460061
:100270003A003B003C003D003E003F004000410092
:10028000420043004400450049004C0001000000CA
:10029000AA00A800A900010001000100010001005E
:1002A0000100010001000100010001000000AC009C
:1002B000AE00AB00010001000100010001000100DF
:1002C00001000100010000000100BE00BD000100AE
:1002D0000100010001000100010001000100010016
:1002E0000100010001000100010000000100000008
:1002F00000000100000000000000010001000100FA
:1003000001000100010001000100010001000100E5
:1003100001000100010001000100010001000100D5
:1003200001000100000001000100010001000100C6
:1003300001000100010001000100010001000100B5
:1003400001000000010001000100010001000100A6
:100350000100010001000100010001000000010096
:100360000100010001000100010001000100010085
:100370000100010001000100010001000100010075
:10038000000001000000000001000000000000006B
:100390000100010001000100010000010101010153
:1003A000010101010202020202020202020303032E
:1003B00003030303030404040404040405050505FE
:1003C00005060606060607070707070808080809BE
:1003D0000909090A0A0A0B0B0B0C0C0C0D0D0D0E6A
:1003E0000E0E0F0F0F1010111111121213131414FF
:1003F000151516161717181819191A1A1B1B1C1D74
:100400001D1E1E1F202021222223242425262627CC
:100410002829292A2B2C2D2D2E2F303132323334FE
:1004200035363738393A3B3C3D3E3F404142434404
:1004300045464748494A4C4D4E4F505153545556E6
:1004400058595A5B5D5E5F616264656668696B6C92
:100450006D6F7072737577787A7B7D7E808283850D
:1004600087888A8C8E8F91939596989A9C9EA0A24D
:10047000A3A5A7A9ABADAFB1B3B5B7BABCBEC0C257
:10048000C4C6C9CBCDCFD1D4D6D8DBDDDFE2E4E71B
:10049000E9EBEEF0F3F5F8FAFDFF05010980A101A3
:1004A000850319012AB700150126B70095017510BB
:1004B0008100C0050C0901A101850419012AA002CF
:1004C000150126A002950175108100C005010906DD
:1004D000A1018506050719E029E715002501950802
:1004E000750181020507190029EF1500250195F016
:1004F000750181020508190129059505750191020B
:10050000950175039101C005010906A101050719AF
:10051000E029E7150025019508750181029501750F
:100520000881010507190029FF150026FF0095061F
:1005300075088100050819012905950575019102C5
:10054000950175039101C009023B00020100A0FA68
:100550000904000001030101000921110100012229
:1005600040000705810308000109040100010300A0
:100570000000092111010001226D000705820320FE
:10058000000112010002000000085A44602201002C
:10059000010200010A0344005A0036003000000046
:1005A00010034B0042004400460061006E007300DF
:1005B00000000403090411241FBECFEFDAE0DEBF00
:1005C000CDBF04B603FE18C080918B0290918C02BF
:1005D000A0918D02B0918E028730904BA740B04B16
:1005E00059F410928B0210928C0210928D0210928C
:1005F0008E02E0E0F8E3099511E0A0E0B1E0E0E16F
:10060000F8E302C005900D92A235B107D9F722E0B8
:10061000A2E5B1E001C01D92AB38B207E1F70E943C
:10062000B7180C94DB1B0C940000E8EDF0E080811F
:100630008E7F80831092E2001092DA001092E10027
:10064000A0EEB0E08C9181608C9380818F77808365
:1006500019BCA7EDB0E08C918E7F8C9380818F7E4A
:10066000808310925B0208952091E4003091E500B0
:1006700095E6A9012091EC00822F817020FF06C031
:100680008091E80080FF06C080E008952091E80096
:1006900022FD1AC080918102882389F0853089F07B
:1006A0008091EB0085FD0FC02091E4003091E500C2
:1006B00042175307F9F29150E1F684E0089582E081
:1006C000089583E0089581E008958091830287FF73
:1006D00013C08091E80082FF06C08091E8008B770C
:1006E0008093E80004C0809181028111F2CF0895C7
:1006F000809181028823D9F38091E80080FFF8CFB0
:100700008091E8008E77ECCF982F9093E900242F0A
:10071000762F50E0891731F07091EC002091ED00B8
:100720005091F00021FD07C09F5F973071F78093D3
:10073000E90081E008953091EB003E7F3093EB00BB
:100740003091ED003D7F3093ED003091EB00316052
:100750003093EB007093EC002093ED005093F00089
:100760002091EE0027FDE0CF80E00895B0E0A0E00A
:10077000ECEBF3E00C94591BC8EDD0E088818F7E40
:100780008883E7EDF0E080818160808384E082BF30
:1007900081E080935B0288818E7F888302EE10E087
:1007A000F80110821092DA0081EEC82ED12CF601E9
:1007B000108288818F778883888180688883888188
:1007C0008F7D888319BC1092810210928202109250
:1007D000800210927F0290EEE92EF12CF7018081C9
:1007E0008B7F808388818160888342E060E080E045
:1007F0000E948403F60180818E7F8083F8018081CE
:1008000081608083808188608083F70180818E7F12
:100810008083888180618883CDB7DEB7E8E00C945F
:10082000751BFC018091890290918A0286179707B7
:10083000A0F06115710529F49091E8009E779093DE
:10084000E80090E06115710551F4911108C08091A4
:10085000E80082FF34C080E00895BC01F2CF8091AF
:1008600081028823C1F18530C1F18091E80083FDC8
:1008700030C08091E80082FDEACF8091E80080FFDF
:10088000E1CF8091F3002091F200382F61157105BE
:1008900019F02830310558F091E02830310509F081
:1008A00090E02091E8002E772093E800CBCF819153
:1008B0008093F100615071092F5F3F4FE7CF809126
:1008C0008102882341F0853041F08091E80083FF68
:1008D000BECF81E0089582E0089583E008950895F1
:1008E00080915E0208952FB7F894809155029091FF
:1008F0005602A0915702B09158022FBF0895A3E06D
:10090000B0E0E5E8F4E00C945F1B209152023091D6
:10091000530228173907A1F0909353028093520293
:10092000E0915002F0915102309751F024E0298378
:100930009B838A830680F781E02DCE01019609957D
:100940002396E2E00C947B1BA3E0B0E0EAEAF4E03B
:100950000C945F1B20914E0230914F0228173907EB
:10096000A1F090934F0280934E02E0915002F091DB
:100970005102309751F023E029839B838A830680BC
:10098000F781E02DCE01019609952396E2E00C94C3
:100990007B1BE0915002F0915102309729F00190B9
:1009A000F081E02D0995089580E008958F929F923F
:1009B000AF92BF92EF92FF920F931F93CF93DF936B
:1009C0008630B8F5811136C0909180009F7D90935C
:1009D00080002E98A0918600B0918700282F30E0EB
:1009E0000E94351B25E030E040E050E00E940D1BE6
:1009F00089019A0180918600909187006CE070E0F7
:100A00000E94F91A60177107D8F0C80169E070E018
:100A10000E94F91A70938B0060938A00DF91CF9146
:100A20001F910F91FF90EF90BF90AF909F908F908C
:100A3000089585E090918000906290938000CACFE5
:100A40008091860090918700E0908600F09087006A
:100A5000E0918600F0918700C6E0D0E0BE010E94E0
:100A6000F91A060F171F211D311D4801590185E094
:100A7000880C991CAA1CBB1C8A95D1F7C701BE0122
:100A80000E94F91A9F0150E040E0260F371F411DD8
:100A9000511DC501B4010E940D1B49015A01E0918D
:100AA0008600F0918700CA01B9010E94E91A9B01F2
:100AB000AC01DF010E94441B9B01AC01C501B401E4
:100AC0000E94E91A2FE096958795779567952A9564
:100AD000D1F7009186001091870030E020E00617E2
:100AE00017072807390708F095CF609186007091A5
:100AF000870090CFFA01811101C0FB01099508958B
:100B000080914802982F9E7F39F48091480281702D
:100B100082608093480208958430B8F7089580E099
:100B20000895F894E82FE295EF70F0E031A1282FB6
:100B30002F7081E090E001C0880F2A95EAF7982F86
:100B40009095932391A392A1892B82A378940895E1
:100B50009091590292FF06C0282F28712830F9F48D
:100B6000877F846093FF06C0282F28712831F1F415
:100B7000877E846120915A0220FF06C0382F387189
:100B80003830D9F4877F816021FF06C0282F287173
:100B90002831D1F4877E816194FD877E0895282FC6
:100BA00024712430F9F68B7F8860DCCF282F2471E4
:100BB000243101F78B7E8861DDCF382F31713130E0
:100BC00019F78E7F8860E0CF282F2171213121F71E
:100BD0008E7E8861E1CF972F7530B8F46F30A8F41E
:100BE000853098F470E02FE0929F600D711D112404
:100BF000FB019BE4899FE00DF11D1124EE0FFF1F07
:100C0000E455FF4F85919491089580E090E0089518
:100C1000CF93DF93EC0182389105B9F108F041C020
:100C20008133910509F49FC050F58932910509F48B
:100C30008FC08A9709F49EC0C11520E5D20708F03D
:100C4000BDC0C11530E4D30708F00AC1C03ED105CC
:100C500008F0A5C0CD3CD10508F000C1C83AD105C7
:100C600008F08FC0C53AD10508F0F0C0C130D105F9
:100C700039F1209729F1C430D10510F546C08533EC
:100C8000910509F460C0C997B9F680915902837043
:100C900009F044C180915A0283FF12C0C9E2D0E03A
:100CA0000FC0833E9105A1F178F4803E910509F1D2
:100CB000823E910509F0C0CF8091590282FD21C08A
:100CC000CE01DF91CF910895863E910561F1873E77
:100CD000910571F1843E910509F0AECF80915A02E1
:100CE00081FFEECF80915902C7EED0E084FD0DC0A8
:100CF000E7CF8091590280FD33C090915A0290FF56
:100D0000DFCFC3EED0E084FFDBCFD0E0C0E0D8CFB0
:100D10008091590282FDFFC090915A0290FDFEC061
:100D200084FFCECFF2CF8091590283FDDDCFC8CFB3
:100D30008091590283FDF5C090915A0291FFF0CF46
:100D4000C4EED0E0BDCF8091590285FFB9CFA6CFC8
:100D50008091590285FDE8C080915A0283FFB0CF8F
:100D6000C9E3D0E0ADCF8091590286FFA9CFCAE296
:100D7000D0E0A6CF8091590286FFA2CFC1E3D0E098
:100D80009FCFC13CD10508F6C85AD0E0CC0FDD1F7B
:100D9000C45FDE4F0990D881C02DD46491CFC115B6
:100DA00040E2D40708F0AAC0C11581E0D80708F0D6
:100DB00087CFC83ED10508F483CFA7CFC03622E540
:100DC000D20718F5C03432E5D30708F053C0C0325B
:100DD00042E5D40708F047C0C11582E5D80708F4FA
:100DE0007FC02C2F2695269540E2249F9001112448
:100DF0008C2F8370C1E0D0E002C0CC0FDD1F8A953C
:100E0000E2F7C22BD32BDD685BCFC03A22E5D207D5
:100E100060F4C03832E5D30708F441C0CF71D0E0A8
:100E2000DC2FCC27C46FD06A4BCFC03C42E5D4073F
:100E300008F44AC0C03E82E5D80708F066CFDC2F30
:100E4000CC27CC27DF71C06FD06A3ACFC55AD0E02B
:100E5000C75FDE4FC881D0E0D06432CFD06530CFDD
:100E6000DF70D06A2DCFCF71D0E0DC2FCC27C16FDF
:100E7000D06A26CF2C2F26952695277080E2289FB2
:100E8000900111248C2F8370C1E0D0E002C0CC0F00
:100E9000DD1F8A95E2F7C22BD32BDC6811CF2C2FF4
:100EA00026952695277040E2249F900111248C2FCF
:100EB0008370C1E0D0E002C0CC0FDD1F8A95E2F75D
:100EC000C22BD32BDA68FCCE8C2F8F710E94A80521
:100ED000C82FD0E0DC2FCC27CC27DF71D062F0CE3A
:100EE0008C2F8F710E94A80535E0D695C7953A954D
:100EF000E1F7CF709C2FEC01D069E2CE8D2F8F717E
:100F00000E94A80590E0982F882788279F719C0150
:100F10002C2BE901E3CFC2EED0E0D2CEC0EED0E080
:100F2000CFCEC6EED0E0CCCEC5E3D0E0C9CE809126
:100F3000ED0181111092ED010895809590915C0270
:100F4000982390935C020895909108019923D1F021
:100F50009091590297FF16C0E82FE695E695E69521
:100F6000EE31E0F4F0E0EC5AFE4F282F277081E0DC
:100F700090E001C0880F2A95EAF780959281892335
:100F800082830895E6E5F1E09191891303C0DF01C2
:100F900011971C9291E0EC35F907B1F70895909103
:100FA00008019923C1F09091590297FF14C0E82FCE
:100FB000E695E695E695EE31F8F4F0E0EC5AFE4F52
:100FC000877021E030E001C0220F8A95EAF7828124
:100FD000822B82830895A6E5B1E0EFEF90E02D919A
:100FE000821751F0EF3F19F4211101C0E92F9F5FE3
:100FF0009630A9F7EF3F09F408950E2E000CFF0B71
:10100000EC5AFE4FE6CF8091CA0190919901981356
:1010100001C008958F5F8770FACFCF92DF92FF9261
:101020000F931F93CF93DF936C010091FC0180918C
:10103000EE01082BC7E0D0E010E0FC2EC8010C2E1A
:1010400002C0959587950A94E2F780FD0CC0219720
:10105000A0F7F12C8F2DDF91CF911F910F91FF9071
:10106000DF90CF900895B6018C2F0E94EB050E946F
:101070000806019761F3EECFCF93DF93EC010E9456
:101080000D08BE010E94EB050E940806DF91CF917A
:101090000895292F953078F58F3068F590E03FE07E
:1010A000239F800D911D1124682F677023E0969572
:1010B00087952A95E1F7FC01EE0FFF1FE80FF91F56
:1010C000EB58FE4F50E040E080E0219130E0062EEA
:1010D00002C0369527950A94E2F721703327042E33
:1010E00001C0220F0A94EAF7822B4F5F5F4F433013
:1010F000510559F7089580E00895292F953098F506
:101100008F3088F590E03FE0239F800D911D1124E2
:10111000282F277041E001C0440F2A95EAF723E009
:10112000969587952A95E1F7FC01EE0FFF1FE80FD2
:10113000F91FEB58FE4F30E020E070E05191DF01E5
:101140001197CB01022E02C0969587950A94E2F77B
:10115000817081958527842385278C932F5F3F4F4E
:101160002330310559F708958093FC01089521E05B
:1011700030E001C0220F8A95EAF720958091FC01AA
:1011800082230E94B40808959091CB018095892311
:101190008093CB01282F277091F4282F082E000C64
:1011A000330B9217130659F090915A0292FF07C021
:1011B0008595859585950E94B7081092CB01089575
:1011C00021E030E001C0220F8A95EAF78091FC010E
:1011D000822B0E94B40808958093EE010895FC01CB
:1011E00083819481892B29F08081918189238F3F8C
:1011F00051F480E00895843FE1F717C0883EA8F0DD
:10120000813FB9F712C0808191810E943C0892957C
:101210009F70963099F358F4925F9F70923048F720
:10122000803F19F040F7883E20F781E008959A5FEB
:10123000F4CF81FD02C02A9A08952A9808950F9349
:101240001F93CF93DF938B01EA0190918102943039
:1012500061F58093E9008FEF9091E800815095FD52
:1012600006C095ED9A95F1F700008111F5CF8091B8
:10127000E80085FF1AC00E943403811111C08091DB
:10128000E80085FD06C08091E8008E778093E80035
:10129000F2CFF80181918F018093F100219779F7C6
:1012A0008091E8008E778093E800DF91CF911F91C5
:1012B0000F91089543E050E0BC0182E00E941F09B5
:1012C0000895CF93DF93EC0180910801811111C043
:1012D00048E050E0BE0181E00E941F0980E2FE016B
:1012E000AFE5B2E001900D928A95E1F7DF91CF91E1
:1012F00008958091590287FF05C040E282E050E0E6
:10130000BE01EACF48E081E0FACF81E08093E000BF
:1013100080E28093D8001092C9008FE19EE401978B
:10132000F1F700C0000087E090EBDC0180938B02B6
:1013300090938C02A0938D02B0938E0288E19CE082
:101340000FB6F894A895809360000FBE909360004C
:10135000FFCF8091480280FD0AC0E8E1F2E01182EF
:1013600010821282339652E0E834F507C1F76A9A88
:101370003EB13B7F2EB124604FB7F89488E192E0F4
:10138000FC015191CF0168E02EB9000000C057FF69
:101390003EB9550F000000C000C000C03EB900C0FB
:1013A0006A9591F7F2E088349F0751F74FBF8FE5B8
:1013B00094E00197F1F700C000000895682F86E0DF
:1013C00090E00E949A1B0895CF92DF92EF92FF92D5
:1013D0006B017C010E948005B701A60188E090E0C6
:1013E0000E94AC1BFF90EF90DF90CF900895B0E08B
:1013F000A0E0EDEFF9E00C94551BD82FC62FD42EAA
:10140000822EC0904802C0FE32C08C2D8E7F82306A
:10141000E1F4E42FF0E0E656FC4F61112DC0249179
:10142000F22FE22FC0FE11C0A8E1B2E088E492E002
:101430001196EC9311972C931296FC931297139696
:101440008A179B07A9F70E94A909D0934902C09364
:101450004A02D0924B02882051F06091480270916C
:10146000490280914A0290914B020E94E409CDB753
:10147000DEB7ECE00C94711BE62EF12CE4919E2E6D
:101480000E2F10E026E0D29FC00111242FEF30E094
:10149000B9010E94F91A8D2F90E0880F991FF5E588
:1014A000F69FA001F79F500D1124841B950BB82EB9
:1014B000BB0CB80EA9014E195F09409FC001419FA6
:1014C000900D509F900D1124F92FCB9DA001112458
:1014D000452F5527D901A41BB50BA09FA001A19FA3
:1014E000500DB09F500D1124D901AB19B1095D0108
:1014F000AE9CD001AF9CB00DBE9CB00D1124AB2FA3
:10150000BB272A1B3B0B209FD001219FB00D309F92
:10151000B00D11242B2F62307105A1F050F461152C
:10152000710509F47FCF6130710581F0292FF52F06
:1015300079CF6430710569F080F06630710509F487
:1015400071CFF4CF2E2FE92FFB2F6CCF2E2FE52F4D
:1015500069CF292FFE2FEB2F65CFE92FF92D252FEE
:1015600061CFE8E4F2E0438128E0421B08F440E068
:1015700021E0628181810E94F7090895E8E4F2E0A8
:10158000438128E0420F08F44FEF21E0628181811E
:101590000E94F7090895E8E4F2E0628128E0621B06
:1015A00008F460E021E0438181810E94F7090895F9
:1015B000E8E4F2E0628128E0620F08F46FEF21E0D6
:1015C000438181810E94F7090895E8E4F2E0818176
:1015D00021E04381628188500E94F7090895E8E480
:1015E000F2E0818121E043816281885F0E94F709F6
:1015F000089580914C02882319F0815080934C0209
:10160000609148027091490280914A0290914B0288
:101610000E94E409089580914C02833018F48F5F92
:1016200080934C02609148027091490280914A0275
:1016300090914B020E94E40908958091480280FF36
:1016400019C08170826080934802662351F06091D6
:1016500048027091490280914A0290914B020E9487
:10166000E40920E040914B0260914A0280914902D6
:101670000E94F7090895809148028695815009F4E7
:1016800081E061E00E941D0B089561E081E00E940D
:101690001D0B0895E8E4F2E083E0808311828FEF70
:1016A00082838383148260817181828193810E940D
:1016B000E409089567EE7EEF90E080E00E94B81B99
:1016C00060E082E090E00E949A1B60E083E090E09E
:1016D0000E949A1B1092EE0160E074E184E090E0B9
:1016E0000E94B81B60E086E090E00E949A1B6FEFBA
:1016F00087E090E00E949A1B40E050E0BA0188E049
:1017000090E00E94AC1B60E08DE090E00E949A1B8C
:1017100040E050E0BA0188E190E00E94AC1B60E03C
:1017200087E190E00E949A1B40E050E0BA018CE112
:1017300090E00E94AC1B70E060E080E290E00E94CC
:10174000B81B40E050E0BA0188E190E00E94AC1B79
:1017500040E050E0BA018FE090E00E94AC1B40E016
:1017600050E0BA0183E190E00E94AC1B089590E044
:1017700080E00E94941B873E9E4F51F00E945A0BBE
:1017800080914D028470896280934D020E94DE092F
:1017900086E090E00E94861B80934D02803320F00B
:1017A0008770886280934D0290914D02892F8170DD
:1017B00090FF04C0892F8695869586950E94D60451
:1017C000089590915A0292FB222720F9281779F068
:1017D00080FB92F990935A026091590270915A02DB
:1017E00084E090E00E94B81B82E00E94C408089543
:1017F00080915C029091EC01892B8093540190912F
:10180000ED019923A1F0892B809354018091080167
:101810008823E1F18091590287FF38C08EE1E6E527
:10182000F1E090E08150A0F591110E94970740E20D
:1018300050E06CEC71E084E591E00E94CE1B892BB6
:1018400021F180E2E4E5F1E0ACECB1E001900D9231
:101850008A95E1F7E0915002F09151023097A9F09A
:1018600080910801882359F08091590287FF07C0B1
:10187000809154018093550186E080935401028049
:10188000F381E02D84E591E00995089586E0C7CFC6
:101890002191222339F29F5FC5CF80910801E6E5AF
:1018A000F1E08823B1F08091590287FF12C08EE1E8
:1018B000DF011D928A95E9F790E080E00E94A40480
:1018C00090E080E00E947F041092EC010E94F80BEF
:1018D000089586E0EDCFAAE2B0E0E1E7FCE00C94E9
:1018E0005E1B83E892E02091F100FC012193CF017F
:1018F000F2E08B389F07B9F780918402833009F4B6
:1019000070C0B8F4813009F447C0823009F4B3C024
:101910008091E80083FF80C28091830290918402CD
:101920009A3008F079C2E92FF0E0E352F44E0C94BB
:101930002F1B8A3009F48EC08B3009F46FC08930B8
:1019400039F780918302813219F780918702909153
:1019500088020297E8F68091E800877F8093E8008C
:101960008091E80082FF38C09091F3008091F200EE
:10197000029731F48091F100813011F0863021F42A
:101980008091F10080935E028091E8008B778093D4
:10199000E8000E946503BCCF80918302813A09F080
:1019A000B7CF8091E800877F8093E800809187021D
:1019B00090918802892B61F460E28FE592E070E0FB
:1019C0000E9411048091E8008B778093E800A0CFFB
:1019D00060E090E080E0F3CF809181028111C0CF80
:1019E00097CF80918302813A09F092CF809187024C
:1019F00090918802892B09F08BCF8091E800877F36
:101A00008093E8008091E80080FFFCCF809108017E
:101A10008093F1008091E8008E77B9CF80918302A6
:101A2000813209F075CF8091870290918802892BCD
:101A300009F06ECF8091E800877F8093E8000E94D4
:101A40006503809185028093080110925C020E94D8
:101A50004D0C5ECF80918302813209F059CF809185
:101A6000E800877F8093E8000E94650380918602EA
:101A700080935D024DCF80918302813A09F048CF77
:101A80008091E800877F8093E8008091E80080FFE4
:101A9000FCCF80915D02BCCF803899F0823809F08C
:101AA000BBC1809187028F70873008F0B5C18093E9
:101AB000E9008091EB0085FB882780F91092E9000E
:101AC00006C080917F029091800291118260909176
:101AD000E800977F9093E8008093F1001092F10066
:101AE0008091E8008E7794C1882309F482C1823006
:101AF00009F092C180918502811185C18091870290
:101B00008F702FEF280F263008F086C18093E900F0
:101B10002091EB0020FF77C1933031F48091EB00EE
:101B200080628093EB006FC19091EB009061909385
:101B3000EB0021E030E001C0220F8A95EAF7209304
:101B4000EA001092EA008091EB008860EACF8111F0
:101B500063C1109185021F778091E3008078812B0B
:101B60008093E3008091E800877F8093E8000E94E3
:101B700065038091E80080FFFCCF8091E3008068DE
:101B80008093E30082E0111183E08093810244C1DD
:101B90008058823008F040C1809185029091860281
:101BA0008C3D23E09207A1F583E08A838AE2898352
:101BB0004FB7F894DE01139620E03EE051E2E32FA8
:101BC000F0E050935700E49120FF03C0E295EF70DE
:101BD0003F5FEF708E2F90E0EA30C0F0C7968D9394
:101BE0009D932F5F243159F74FBF8091E800877F85
:101BF0008093E8006AE270E0CE0101960E94110431
:101C00008091E8008B778093E80006C1C096E7CF0B
:101C10004091870250918802292F332723303105C4
:101C200009F444C078F52130310509F46FC08BE325
:101C300090E0E7E4F5E02230310509F0EDC02091B5
:101C4000E800277F2093E8002091890230918A02E2
:101C50008217930708F49C0140E02115310509F033
:101C600064C0411162C08091E80082FDC9CF8091BB
:101C70008102882329F2853019F28091E80083FFE0
:101C8000F2CFBECF21323105A9F12232310509F060
:101C9000C3C04115510509F443C04130510509F055
:101CA000BBC08DE690E0EAE9F4E0C9CF9927813026
:101CB0009105C1F0009759F0029709F0ADC0E4E931
:101CC000F5E0E4918E2F90E0E4E9F5E007C0E2EB67
:101CD000F5E0E4918E2F90E0E2EBF5E0009709F457
:101CE0009BC0ADCFE0EAF5E0E4918E2F90E0E0EA12
:101CF000F5E0F4CF4115510571F04130510509F07F
:101D00008BC089E090E0E2E7F5E099CF82E190E0D6
:101D1000E2E8F5E094CF89E090E0E9E5F5E08FCFE7
:101D200080E490E0E7E0F5E08ACF809181028823AB
:101D300009F466CF853009F463CF8091E80083FD14
:101D40005FCF8091E80082FD8ECF8091E80080FF18
:101D500084CF9091F3008091F2002115310519F0A4
:101D60008830910550F041E0089709F040E08091FB
:101D7000E8008E778093E80070CF44914093F100A3
:101D80003196215031090196E8CF803809F044C0DE
:101D90008091E800877F8093E800809182028093A1
:101DA000F1009ECE811138C0109185021230A0F54D
:101DB0008091E800877F8093E800109382020E9460
:101DC0006503112311F084E005C08091E30087FDD5
:101DD000FACF81E08093810242E061EC81E00E94D1
:101DE000840342E261EC82E00E94840380918102DC
:101DF00013C080918502813079F481E0933009F03D
:101E000080E0809380021092E9008091E800877F53
:101E10008093E8000E9465038091E80083FF0AC078
:101E20008091E800877F8093E8008091EB008062DA
:101E30008093EB00AA96E3E00C947A1B10925C026C
:101E40000E944D0C2FEF84E39CE021508040904095
:101E5000E1F700C0000088E19CE00FB6F894A89577
:101E6000809360000FBE90936000FFCF882321F025
:101E70000E949D070E94F80B0895882339F09091E5
:101E80005C02982B90935C020E94F80B08958823C3
:101E900009F44DC0823879F40E94C90481FF47C01B
:101EA00089E30E94CF070E94F80B89E30E94A407F0
:101EB0000E94F80B0895833859F40E94C90480FFEA
:101EC00036C083E50E94CF070E94F80B83E5EECF72
:101ED000843859F40E94C90482FF29C087E40E9413
:101EE000CF070E94F80B87E4E1CF9CEF980F913A5F
:101EF000E8F290E2980F983050F4877091E001C0BA
:101F0000990F8A95EAF7892F0E949D07D1CF9BE50B
:101F1000980F933028F490E080E00E94A404089584
:101F2000885A893120F490E080E00E947F0408956F
:101F3000CF93C82F8823C9F08238C9F40E94C904FE
:101F400081FD13C089E30E94CF070E94F80B2FEF99
:101F500087EE93E0215080409040E1F700C0000000
:101F600089E30E94A4070E94F80BCF91089583385B
:101F7000A1F40E94C90480FDF8CF83E50E94CF0739
:101F80000E94F80B2FEF81EE94E0215080409040AA
:101F9000E1F700C0000083E5E4CF8438A1F40E949B
:101FA000C90482FDE2CF87E40E94CF070E94F80BAC
:101FB0002FEF81EE94E0215080409040E1F700C087
:101FC000000087E4CECF8CEF8C0F813A88F58091AA
:101FD0000801882301F18091590287FF1CC0EC2F72
:101FE000E695E695E695F0E0EC5AFE4F828190E0AA
:101FF0004C2F477021E030E002C0220F331F4A957A
:10200000E2F782239323892B79F08C2F0E94A40777
:102010000E94F80B09C0E6E5F1E08191C817A9F329
:1020200021E0EC35F207C9F78C2F0E94CF079BCF38
:1020300080E28C0F883068F4C77021E030E001C086
:10204000220FCA95EAF780915C02822B80935C0292
:102050008ACFEBE5EC0FE33040F4F0E0E75FFE4FB2
:10206000808190E00E94A40480CFC85AC93108F052
:102070007CCFEC2FF0E0EE0FFF1FE45FFE4F80817E
:1020800091810E947F0471CFAAE0B0E0EAE4F0E120
:102090000C94531B8E010F5F1F4F8AE0F8011192C1
:1020A0008A95E9F79EE3E92E91E0F92E680123E491
:1020B000622E21E0722E88248394912CF701819165
:1020C0007F018F3F09F446C0F894E82FE295EF7046
:1020D000F0E021A18F70A40102C0440F551F8A9522
:1020E000E2F7CA01922F982B91A392A180958923A0
:1020F00082A3789400C0E3E4F1E021E030E0B12C69
:10210000A12C41914F3F09F471C0A42FA295AF704B
:10211000B0E090968C9190E04F7002C095958795B5
:102120004A95E2F780FD62C0C901A82AB92A220FA8
:10213000331F51E0E235F50721F7F7013197808130
:102140008F3F11F00E94910580EA8A95F1F7F60120
:10215000B182A082F2E0CF0ED11C6E147F0409F090
:10216000ADCF4AE050E0B80182EF91E00E94CE1B73
:10217000892B09F43EC08AE0F801A2EFB1E001909A
:102180000D928A95E1F781E08093F1010E9473043A
:102190009093F0018093EF012091EF013091F001D5
:1021A0004FB7F8948091550290915602A091570232
:1021B000B09158024FBF821B930B0597F0F04AE095
:1021C00050E062EF71E082E092E00E94CE1B892B2A
:1021D000C9F08AE0E2EFF1E0A2E0B2E001900D92F6
:1021E0008A95E1F781E01092F10108C090E080E06B
:1021F0009CCF8091F1018111CFCF80E02A96EEE053
:102200000C946F1B80E0EFCFA5E0B0E0EAE0F1E1D5
:102210000C94551B7C01DC0113968D919C911497B5
:10222000892B39F08C9111969C9189238F3F09F06D
:10223000E6C32596ECE00C94711B0E940D08182F44
:10224000682F89819A810E947D0869817A81812F16
:102250000E94EB05FC01D70112968C91E115BEE7B7
:10226000FB0799F0E1302EE7F20759F1811132C0F6
:10227000E631BCE7FB0709F0DFC0809174018111F2
:10228000D9C089E20E94A40746C0882341F061E0DA
:1022900083E090E00E949A1B81E00E94EC0880910C
:1022A000CB01877031F2D70112968C91882309F403
:1022B000C0CF80915A0282FFBCCF82E00E94C40846
:1022C000B8CF882361F362E083E090E00E949A1B1C
:1022D00082E0E3CFE23038E7F30709F48EC0F0F490
:1022E000E11598E7F907C9F1E130A8E7FA0709F421
:1022F0004CC0E6318CE7F80709F0FEC080915C0223
:102300008A7A91E009F490E090937401811190C071
:1023100089E20E94CF070E94F80BC1CFE430B8E7F2
:10232000FB0709F456C0C8F1E53038E7F30709F7B1
:1023300090914D02892F8695869586958F5F8F7136
:102340009770863008F071C0880F880F880F892B2E
:1023500080934D0280914D0228C080914D0287707C
:10236000886280934D02887F91E009F490E080912B
:102370004D0290FB80F980934D0285E00E94D604C7
:1023800080914D020E94DE098ACF80914D028770B4
:102390008E7F80934D0280E0F1CF80914D02982F87
:1023A000987F79F0885080934D02887F91E009F4FE
:1023B00090E080914D0290FB80F980934D020E9445
:1023C000DE0980914D028695869586950E94D604F9
:1023D00066CF80914D02982F96959695969595305B
:1023E00040F49F5F990F990F990F8770892B809305
:1023F0004D0280914D028160E0CF80914D0280FFBF
:1024000007C08E7F80934D020E94DE0980E0DECF00
:1024100080FD45CF816080934D02813019F489E0C1
:1024200080934D0280914D02CACF90934D0292CF7E
:1024300085E36FCF85E326CF80915C028272E05204
:10244000F847E531F10508F067C0E951F44E0C9406
:102450002F1B8091480280FF10C08E7F809348021E
:10246000609148027091490280914A0290914B021A
:102470000E94E4090E94A90912CF8160809348025A
:1024800061E086950E941D0B0ACF4BE35BE065E49B
:102490007BE00E947A0503CF45E45BE06BE37BE0E1
:1024A000F8CF45EE5AE06FEE7AE0F3CF4FEE5AE008
:1024B00065EE7AE0EECF4BEC5AE068ED7AE0E9CFDA
:1024C00048ED5AE06BEC7AE0E4CF41EB5AE06EEB7A
:1024D0007AE0DFCF4EEB5AE061EB7AE0DACF49EFFA
:1024E0005AE06BE07BE0D5CF4BE05BE069EF7AE050
:1024F000D0CF61E081E0C6CFE3309CE7F90709F473
:1025000073C008F054C0E115BCE7FB0709F45DC0D7
:10251000E130FC4709F46EC0F7018281008111812E
:10252000882309F475C0C8010E940D08D82E682FB1
:10253000C8010E947D08B8018D2D0E94EB050E9404
:1025400008068C01882ED7011296DC9012971596FA
:10255000BC90B2943FE0B3228091CB018770C1F070
:10256000AD2CDD20B1F0812F807F803421F080E21E
:10257000800F883068F080915A0282FF09C082E0A3
:102580000E94C4088091CB018770AA24A394811172
:10259000A12C912E92942FE09222BBE0B91508F461
:1025A000A3C0E92DF0E0E450F44E0C942F1BEB3562
:1025B0003CE7F30759F1EC358CE7F807E9F0EA3529
:1025C000FC4709F0A9CF81E01EC010925C020E9476
:1025D0004D0CAFEFB4E3ECE0A150B040E040E1F7C8
:1025E00000C000000E9485096FEF7FEF90E080E05F
:1025F0000E94B81B0E941E0F80915A0282FB8827FE
:1026000080F991E089270E94E10B86CF80E0FBCF23
:10261000C8010E944908D82E8ECFE12FEF70CE2E30
:10262000107F19F0C29490EFC922DD20B9F0CC20C0
:1026300069F080E2800F883010F0811009C080912D
:102640005C02C82AC0925C020E94F80B802F4AC02C
:102650008091EC01C82AC092EC01F6CF802F0E9435
:10266000470FCC2009F440C0005E083010F0811004
:1026700004C08C2D0E949D0706C0C0948091EC017F
:10268000C822C092EC010E94F80B2EC0F12FFF70FF
:10269000CF2E107F103219F0C29480EFC82288200C
:1026A00089F021E0821609F47EC0DD2009F488C09B
:1026B000BB2009F47EC0F701858180FFC7CF8F70F2
:1026C000858377C020915A0222FD45C0DD20E9F1C3
:1026D000CC2039F080915C02C82AC0925C020E9432
:1026E000F80B80E00E94980FA92DA850BB0B1497FF
:1026F00020F40E94C9040E941909AA20A9F080911F
:10270000CB0180FD11C0F7011282859585958595D5
:102710000E94E008C7010E9404118091CB018595B9
:10272000859585950E94B70885E0F701DE01119631
:1027300001900D928A95E1F709811A81C8010E94E2
:102740004908B8010E94EB0574CD80E00E94470F54
:10275000CC2051F28ECFDD20A1F09091ED018C2D97
:10276000892BB11003C00E943D0FBECF31E0B312E0
:10277000FACF22FFB9CF891709F4B6CF8093ED01C4
:10278000B3CFB11006C00E9497078C2D0E94360F60
:10279000ABCF81E0B81609F4A7CF8C2D0E94360F7D
:1027A0000E949707A1CFDD2031F095E09B1508F43A
:1027B0009BCF8C2DD8CFA4E0AB1508F495CFE5CFF7
:1027C000BB2019F3F9E38F1209C02FEF37EE83E036
:1027D000215030408040E1F700C00000802F0E946F
:1027E000470F82CF812F86958695837061F0813067
:1027F00009F07ACFC8019370D11002C080E090E058
:102800000E947F0471CFC8019370D11002C080E094
:1028100090E00E94A40468CF812F837089F5D110C5
:1028200063CF402F429546954770440F440F802F49
:102830008F70042E01C0880F0A94EAF7202F2071B0
:1028400004FF07C02FE030E001C0220F4A95EAF7ED
:102850002095169516951370123069F050F430914A
:10286000EE01113029F0822B83230E94EC083CCF2B
:10287000832B822BFACF282B8091EE018227F5CF74
:102880008695DD2011F0812F8170882309F42CCFEB
:10289000402F429546954770440F440F802F8F700C
:1028A000042E01C0880F0A94EAF7202F207104FF3C
:1028B00007C02FE030E001C0220F4A95EAF72095CB
:1028C000169516951370123069F050F43091FC0192
:1028D000113029F0822B83230E94B40805CF832B6B
:1028E000822BFACF282B8091FC018227F5CF1F7015
:1028F000DD2029F0812F0E94E008802F34CF802F27
:102900000E94360F812F0E94B708EECE802F92EFE3
:102910008916A9F1981570F0A0EF8A16D1F0B1EFE1
:102920008B1691F0DD2009F45AC0B1108FCE812FA3
:102930008F7129C0E3EF8E1649F1F4EF8F12F2CFB9
:1029400080915A0282FD2DC0812F8F71DD20D9F236
:102950001AC0DD2079F024E02B1508F4C5CE1F71D4
:1029600081E090E001C0880F1A95EAF79091FC0190
:102970008927B2CF35E03B1508F4B6CEF0CF812FD2
:102980008F71D110C0CF0E94E008AECE80E0DD2074
:1029900009F4A2CF1F7181E001C0880F1A95EAF7F0
:1029A0009BCFDD2089F01F71812F0E94E00880916C
:1029B0005A0282FF07C0A8E01A9FC0011124836059
:1029C0008093CB01812FDFCF81E00E94C408B1E06A
:1029D000BB1508F089CE82E00E94C40885CEBB20DA
:1029E00059F0893309F0FACEEFEFF7EE23E0E1502A
:1029F000F0402040E1F7F0CE812F8F7184CF85E049
:102A0000F701DE01119601900D928A95E1F7D70149
:102A100012962C9189819A8121110FCC0E9449082C
:102A2000182F13CC1F93CF93DF9380919801807F51
:102A300009F049C080919501882309F444C0809130
:102A4000CA01D09199016091930170919401A09174
:102A50009601B0919701C62FC72316E0D81799F1B8
:102A600090E0109711F0CF3F19F401968770F6CFE0
:102A7000189F9001199F300D1124F901E656FE4F61
:102A800041814713F2CF40814613EFCF428141117C
:102A9000ECCF438154814A1B5B0B483C510528F71E
:102AA000809198018F70806180939801F901E156BF
:102AB000FE4F80818F708061808383E991E00E9466
:102AC00004110E940308DF91CF911F910895A1E1A5
:102AD000B0E0EDE6F5E10C94571B8C0185E0F801C0
:102AE000DE011D9601900D928A95E1F7F801E280D2
:102AF00083E9A82E81E0B82E60919601709197012C
:102B00006115710509F426C19091930140919401DA
:102B1000892F84238F3F09F41DC120813181C38017
:102B2000D480F0909501F601E61BF70BFF2009F425
:102B3000DCC080919801582F507FE83CF10508F0E7
:102B40009FC051116BC0FE2C431314C0921312C0CE
:102B5000E11010C08F70806180939801C5010E94C0
:102B6000041180919801F80185838F2D6196EAE028
:102B70000C94731BC114D10429F0822F83238F3F3F
:102B800009F003C180E0F82FF170DF2E80FF3CC018
:102B90008091CA014091990156E0841315C02D8798
:102BA0003E878D859E850E943C08292F22952F7097
:102BB0002230F0F0243018F59F70F1F0F801958183
:102BC000907FD1F4D12C1EC090E0589FF001599F06
:102BD000F00D1124E656FE4F6181361306C0608168
:102BE000261303C06281E6120FC001968770D5CF0D
:102BF0009F7011F0882331F3805E883018F3C8018C
:102C00000E940411FD2CB1CFEE2009F4AECF8091CB
:102C10009801816080939801F12CA7CF431306C0DF
:102C2000921304C0F801EE2009F479C0C8010E9493
:102C3000EF08882309F1EE20F9F0809198018032A5
:102C400070F0209193013091940138872F83198679
:102C5000DB86CA868C87CE0107960E94041186E027
:102C6000F801A3E9B1E001900D928A95E1F70E9485
:102C70001215FF24F39479CFC8010E940411F9CFF3
:102C800051110AC083E991E00E94041186E0F50128
:102C900011928A95E9F7C0CF43130FC092130DC06C
:102CA000E1100BC0F8018583C8010E94041186E081
:102CB000F50111928A95E9F758CFC8010E94EF08F3
:102CC0008823D1F2EE20C1F280919801803238F24F
:102CD00020919301309194013A8329831B82DD82F4
:102CE000CC828E83CE010196B8CFE83CF105F8F690
:102CF000FE2CEE2009F243131FC092131DC08091D9
:102D0000980180FD10C0982F907F69F0F8018583AD
:102D1000903F31F0982F907F905F8F70892B858343
:102D2000C8010E94041186E0F801A3E9B1E0019016
:102D30000D928A95E1F719CFC8010E94EF08811121
:102D40008ECF80919801816080939801C8010E9484
:102D500004110BCFEE2009F48FCFC8010E94EF08B9
:102D6000F82E882309F488CF86E0F801A3E9B1E0C2
:102D700001900D928A95E1F78091930190919401D1
:102D80000E943C080E941215F0CE81E08E25FBCEF9
:102D9000A7E1B0E0EEECF6E10C945E1B4B8B5C8B94
:102DA0006D8B7E8B8F8B61111092EC011A8A198AC0
:102DB00085E0FE017396DE011D9601900D928A95C5
:102DC000E1F786E0FE013D96DE01179601900D9237
:102DD0008A95E1F7CE0107960E946715882359F07E
:102DE00016E08091CA0190919901891345C06796B8
:102DF000E3E00C947A1B86E0FE013796DE01119623
:102E000001900D928A95E1F78A859B85892B41F384
:102E10008F81988589238F3F19F32091990130E0A4
:102E2000C9010196877099274091CA014817190670
:102E300081F410925C020E944D0C10929901109244
:102E4000CA0186E0E3E9F1E0DF011D928A95E9F726
:102E5000C7CF96E0929FD001939FB00D1124A65644
:102E6000BE4FFE01319601900D929A95E1F7809345
:102E700099010E940308B4CF819FC0011124865696
:102E80009E4F0E946715882309F4B1CF8091CA0133
:102E900090E00196877099278093CA01A2CF1F9274
:102EA0000F920FB60F9211242F933F934F935F937E
:102EB0006F937F938F939F93AF93BF93CF93DF9342
:102EC000EF93FF93D091E900DF708091EC00C82F61
:102ED000C17080FDC0E81092E9008091F000877F0A
:102EE0008093F00078940E946B0C1092E90080911E
:102EF000F00088608093F000CD2BCF70C093E90084
:102F0000FF91EF91DF91CF91BF91AF919F918F9101
:102F10007F916F915F914F913F912F910F900FBED5
:102F20000F901F9018951F920F920FB60F921124B9
:102F30002F933F934F935F936F937F938F939F93C1
:102F4000AF93BF93EF93FF938091E10082FF09C09D
:102F50008091E20082FF05C08091E1008B7F809329
:102F6000E1008091DA0080FF24C08091D80080FFCA
:102F700020C08091DA008E7F8093DA008091D900A2
:102F800080FF9DC080E189BD82E189BD09B400FE5A
:102F9000FDCF81E08093810280915B02811109C0A5
:102FA0000E9415030E94B6038091E2008460809322
:102FB000E2008091E10080FF17C08091E20080FF75
:102FC00013C08091E2008E7F8093E2008091E20046
:102FD00080618093E2008091D80080628093D80065
:102FE00019BC85E0809381028091E10084FF2BC0B1
:102FF0008091E20084FF27C080E189BD82E189BD24
:1030000089B5982F917080FFFBCF8091D8008F7D7C
:103010008093D8008091E1008F7E8093E1008091C1
:10302000E2008F7E8093E2008091E20081608093D5
:10303000E20080918202882309F447C084E08093F3
:103040008102809181028091E10083FF27C08091FD
:10305000E20083FF23C08091E100877F8093E1003D
:1030600082E080938102109282028091E1008E7F43
:103070008093E1008091E2008E7F8093E200809156
:10308000E20080618093E20042E060E080E00E9424
:1030900084038091F00088608093F000FF91EF91AD
:1030A000BF91AF919F918F917F916F915F914F9160
:1030B0003F912F910F900FBE0F901F90189519BC44
:1030C0001092810210925B0274CF8091E30087FD21
:1030D00093E090938102B5CF78941F921FB61F9210
:1030E00011248F939F93AF93BF938091550290913A
:1030F0005602A0915702B09158020196A11DB11D30
:103100008093550290935602A0935702B0935802B1
:10311000BF91AF919F918F911F901FBE1F901895E7
:103120001F921FB61F9211248F939F93AF93BF934B
:1031300080915402811113C08091550290915602E2
:10314000A0915702B09158024196A11DB11D8093E4
:10315000550290935602A0935702B0935802BF9124
:10316000AF919F918F911F901FBE1F901895CDB763
:10317000DEB72A970FB6F894DEBF0FBECDBF85B776
:10318000806885BF85B7806885BF84B7877F84BF27
:103190000FB6F894A89580916000886180936000D4
:1031A000109260000FBE80E890E00FB6F894809314
:1031B0006100909361000FBE8FE895E090935301FA
:1031C000809352010E9415030E94B6038091E20091
:1031D00084608093E2007894809181028823A1F03A
:1031E0001091E9001F709091EC00892F817090FD83
:1031F00080E8182B1092E9008091E80083FD0E947E
:103200006B0C1F701093E90082E084BD93E095BDC4
:103210009AEF97BD80936E000EE311E0D8018D9177
:103220008D018F3F11F00E949105B1E003341B071F
:10323000A9F703E411E062E5E62E61E0F62EF8015D
:1032400081918F018F3F11F00E949105E016F106E8
:10325000B1F78AE0E2E0F2E0DF01282F1D922A9523
:10326000E9F7E2EFF1E0DF011D928A95E9F790E0DE
:1032700080E00E94941B873E9E4F11F00E945A0BE3
:1032800082E090E00E94861B80930C0284E090E034
:103290000E94941B90935A02809359020E944410FA
:1032A000EFE3FCE93197F1F700C000000E94441001
:1032B0008091020280FF08C06FEF7FEF90E080E016
:1032C0000E94B81B0E94850983E090E00E94861B43
:1032D0000E94EC08229A2A9A269A2E9882E28093DB
:1032E000800089E1809381008FEF9FEF90938700AA
:1032F000809386000E94B70B0E94B70B8091FD015E
:10330000811134C090E080E00E94941B873E9E4F64
:1033100021F00E945A0B0E944A0B88E090E00E9424
:103320008E1B609348027093490280934A029093E7
:103330004B026E7F71F40E944A0B88E090E00E947D
:103340008E1B609348027093490280934A029093C7
:103350004B020E9480058091480280FF04C060E01B
:1033600086950E941D0B81E08093FD0180E091E035
:10337000909351028093500258E1452E512C47E121
:10338000642E42E0742E8091810200E112E18530CA
:1033900009F4AEC00E9444102DE0A22E22E0B22E0D
:1033A00032E0832E32E0932ED401F5012191319148
:1033B0008D919D916E167F0609F4BAC028173907C2
:1033C000A9F3312CD4010D911D914D01F501C1904E
:1033D000D1905F01C016D10659F1C026D126212C0B
:1033E000EE24E394F12CC7018C219D21892BB1F0AF
:1033F0002E823F8221E0C70180239123892B09F48B
:1034000020E028870E9473048160782F9A8789873B
:103410004E815F8168858A850E94C8162394EE0CD0
:10342000FF1CFFE02F12DFCFF501329711830083DD
:10343000339425E03212C6CF8FB7F89440915502ED
:103440005091560260915702709158028FBF92C0FE
:1034500080918102843009F43AC080E00E94D60451
:1034600080E00E9419098091FF0181110EC021E0C6
:103470002093FF0180914802982F91709093FE0154
:103480008E7F809348020E94A9091092540280E422
:103490000FB6F894A895409260000FBE809360002C
:1034A00083B7817F846083BF83B7816083BF789453
:1034B000889583B78E7F83BF0FB6F894A8958091C7
:1034C0006000886180936000109260000FBE809160
:1034D0008002882369F00E944410E2E0F2E08191CA
:1034E0009191892B09F05DC092E0EC30F907B9F7B2
:1034F00080918102853009F4ABCF10925C020E946A
:103500004D0C0E94B70B0E94C9040E941909109229
:10351000FF018091FE01882309F43CCF809148028D
:1035200081608093480260E086950E941D0B32CF37
:103530002817390709F045CF0E9473048C01809148
:1035400000029091010208171907A1F08FEF8983FB
:103550008A831B820E9473048160782F9D838C83F1
:1035600049815A816B818D810E94C8161093010296
:10357000009300020E94C90490911702891709F470
:1035800002CF809317029FB7F89440915502509153
:10359000560260915702709158029FBF0E9419090C
:1035A000EECE09BD19BD09B400FEFDCF8091D80053
:1035B0008F7D8093D8008091E00082608093E0004E
:1035C0008091E00081FDFCCF10925C020E944D0CC6
:1035D0008FCFDB018F939F930E94441BBF91AF91CC
:1035E000A29F800D911DA39F900DB29F900D11245D
:1035F0000895AA1BBB1B51E107C0AA1FBB1FA6173A
:10360000B70710F0A61BB70B881F991F5A95A9F78B
:1036100080959095BC01CD010895A1E21A2EAA1BB8
:10362000BB1BFD010DC0AA1FBB1FEE1FFF1FA21772
:10363000B307E407F50720F0A21BB30BE40BF50B6F
:10364000661F771F881F991F1A9469F760957095F8
:10365000809590959B01AC01BD01CF010895EE0FBF
:10366000FF1F0590F491E02D0994A29FB001B39F34
:10367000C001A39F700D811D1124911DB29F700D7B
:10368000811D1124911D08950E94351BA59F900D49
:10369000B49F900DA49F800D911D112408952F9229
:1036A0003F924F925F926F927F928F929F92AF92D2
:1036B000BF92CF92DF92EF92FF920F931F93CF931F
:1036C000DF93CDB7DEB7CA1BDB0B0FB6F894DEBFB6
:1036D0000FBECDBF09942A88398848885F846E84DC
:1036E0007D848C849B84AA84B984C884DF80EE8026
:1036F000FD800C811B81AA81B981CE0FD11D0FB62F
:10370000F894DEBF0FBECDBFED010895F999FECF4D
:1037100092BD81BDF89A992780B50895A6E1B0E0E1
:1037200044E050E00C94C01BA8E1B0E042E050E05F
:103730000C94C01B262FF999FECF92BD81BDF89A3B
:10374000019700B4021639F01FBA20BD0FB6F894E5
:10375000FA9AF99A0FBE08950396272F0E949B1B91
:103760000E949A1B252F0E949B1B242F0C949B1BAD
:103770000196272F0E949B1B0C949A1BDC01CB0106
:10378000FC01F999FECF06C0F2BDE1BDF89A319671
:1037900000B40D9241505040B8F70895FB01DC0190
:1037A00004C08D910190801921F441505040C8F718
:1037B000881B990B0895F894FFCF4C0D740D0C0FD6
:1037C000740D0C0FA70DC80D0C0FC50ED20E2912CB
:1037D00045124C12511256125B12601265126A1297
:1037E0006F12741279124F114F114F114F114F1167
:1037F0004F114F114F114F110D130D134613461357
:10380000F2137413741374130C147714861486143F
:10381000700461096F045A0901818283E200E900A2
:10382000EA00B500B600B700CD008301CC008A01E4
:10383000920194012102230224022502260227027A
:103840002A02B300B4006F0070009F01CB01909179
:10385000929395F0F1C66766379431303534979678
:0238600033F43F
:00000001FF
