:100000000C94C2020C94FA020C94FA020C94FA02B8
:100010000C94FA020C94FA020C94FA020C94FA0270
:100020000C94FA020C94FA020C94BB170C947717F8
:100030000C94B8180C94FA020C94FA020C94FA027C
:100040000C94FA020C94FA020C94FA020C94FA0240
:100050000C94FA020C9494180C94FA020C94FA0280
:100060000C94FA020C94FA020C94FA020C94FA0220
:100070000C94FA020C94FA020C94FA020C94FA0210
:100080000C94FA020C94FA020C94FA020C94FA0200
:100090000C94FA020C94FA020C94FA020C94FA02F0
:1000A0000C94FA020C94FA020C94FA02165C1E00EC
:1000B0001F0020002100220023002400250026002C
:1000C00027002D002E0049002A002B0000001400FC
:1000D0001A000800150017001C0018000C00120080
:1000E00013002F00300032003942000004001600D7
:1000F000070009000A000B000D000E000F0033007E
:10010000340028000000E10064001D001B00060010
:1001100019000500110010003600370038000451A6
:100120005200E500E000E3000000E20000000000F3
:100130002C00000000000000E600035150005100B8
:100140004F00165C1E001F0020002100220023002B
:1001500024002500260027002D002E0049002A003B
:100160002B00000014001A000800150017001C00E6
:1001700018000C00120013002F003000320039422A
:10018000000004001600070009000A000B000D0023
:100190000E000F003300340028000000E10064006E
:1001A0001D001B000600190005001100100036009C
:1001B0003700380004515200E500E300E000000081
:1001C000E200000000002C00000000000000E6003B
:1001D0000351500051004F00005C3A003B003C00CE
:1001E0003D003E003F00400041004200430044000B
:1001F000450049004C000100000001000100010021
:1002000001000100010001000100010001000100E6
:1002100001000100010000000100010001000100D7
:1002200001000100010001000100010001000100C6
:1002300000000100010001000100010001000100B7
:100240000100010001000100010001004B0001005C
:10025000010001000000010000000000010000009A
:1002600000000000010001004A004E004D000100A6
:10027000BE00BD00010001000100010001000100FD
:100280000100010001000100A75DA85D0100000060
:10029000AA00A800A900010001000100010001005E
:1002A0000100010001000100010001000000AC009C
:1002B000AE00AB00010001000100010001000100DF
:1002C0000100010001000000010001000100010027
:1002D0000100010001000100010001000100010016
:1002E00001004B00010001000100000001000000BE
:1002F00000000100000000000000010001000100FA
:1003000001000100010001000100010001000100E5
:1003100001000100010001000100010001000100D5
:1003200001000100000001000100010001000100C6
:1003300001000100010001000100010001000100B5
:1003400001000000010001000100010001000100A6
:100350000100010001000100010001000000010096
:100360000100010001000100010001000100010085
:100370000100010001000100010001000100010075
:10038000000001000000000001000000000000006B
:100390000100010001000100010000010101010153
:1003A000010101010202020202020202020303032E
:1003B00003030303030404040404040405050505FE
:1003C00005060606060607070707070808080809BE
:1003D0000909090A0A0A0B0B0B0C0C0C0D0D0D0E6A
:1003E0000E0E0F0F0F1010111111121213131414FF
:1003F000151516161717181819191A1A1B1B1C1D74
:100400001D1E1E1F202021222223242425262627CC
:100410002829292A2B2C2D2D2E2F303132323334FE
:1004200035363738393A3B3C3D3E3F404142434404
:1004300045464748494A4C4D4E4F505153545556E6
:1004400058595A5B5D5E5F616264656668696B6C92
:100450006D6F7072737577787A7B7D7E808283850D
:1004600087888A8C8E8F91939596989A9C9EA0A24D
:10047000A3A5A7A9ABADAFB1B3B5B7BABCBEC0C257
:10048000C4C6C9CBCDCFD1D4D6D8DBDDDFE2E4E71B
:10049000E9EBEEF0F3F5F8FAFDFF05010906A1011D
:1004A0008506050719E029E715002501950875015E
:1004B00081020507190029EF1500250195F0750146
:1004C000810205081901290595057501910295011B
:1004D00075039101C005010906A101050719E0296D
:1004E000E7150025019508750181029501750881C0
:1004F000010507190029FF150026FF00950675085C
:1005000081000508190129059505750191029501DC
:1005100075039101C009023B00020100A0FA090421
:100520000000010301010009211101000122400026
:100530000705810308000109040100010300000010
:10054000092111010001223B00070582032000015F
:1005500012010002000000085A446022010001025A
:1005600000010A0344005A00360030000000100366
:100570004B0042004400460061006E007300000022
:100580000403090411241FBECFEFDAE0DEBFCDBFA4
:1005900004B603FE18C08091590290915A02A091AE
:1005A0005B02B0915C028730904BA740B04B59F48E
:1005B0001092590210925A0210925B0210925C0241
:1005C000E0E0F8E3099511E0A0E0B1E0E6EAF7E346
:1005D00002C005900D92A232B107D9F722E0A2E243
:1005E000B1E001C01D92A935B207E1F70E94DF1802
:1005F0000C94BB1B0C940000E8EDF0E080818E7F32
:1006000080831092E2001092DA001092E100A0EED6
:10061000B0E08C9181608C9380818F77808319BC4E
:10062000A7EDB0E08C918E7F8C9380818F7E80834C
:100630001092290208952091E4003091E50095E69A
:10064000A9012091EC00822F817020FF06C08091CB
:10065000E80080FF06C080E008952091E80022FDB8
:100660001AC080914F02882389F0853089F08091EB
:10067000EB0085FD0FC02091E4003091E5004217AA
:100680005307F9F29150E1F684E0089582E008956D
:1006900083E0089581E00895EF92FF920F931F93F6
:1006A000CF937C018B010E941B03C82F811117C0BF
:1006B0008091E80085FD0BC08091E8008E778093E3
:1006C000E8000E941B03882399F3C82F08C0F70194
:1006D00081917F018093F1000150110949F78C2F1E
:1006E000CF911F910F91FF90EF900895809151024B
:1006F00087FF13C08091E80082FF06C08091E80068
:100700008B778093E80004C080914F028111F2CF73
:10071000089580914F028823D9F38091E80080FFEB
:10072000F8CF8091E8008E77ECCF982F9093E90076
:10073000242F762F50E0891731F07091EC00209132
:10074000ED005091F00021FD07C09F5F973071F7D9
:100750008093E90081E008953091EB003E7F309373
:10076000EB003091ED003D7F3093ED003091EB00D8
:1007700031603093EB007093EC002093ED005093C8
:10078000F0002091EE0027FDE0CF80E00895CF92A9
:10079000DF92EF92FF920F931F93CF93DF93C8EDF9
:1007A000D0E088818F7E8883E7EDF0E080818160F2
:1007B000808384E082BF81E08093290288818E7FDC
:1007C000888302EE10E0F80110821092DA0081EEC8
:1007D000C82ED12CF601108288818F77888388817A
:1007E0008068888388818F7D888319BC10924F022E
:1007F0001092500210924E0210924D0290EEE92E8D
:10080000F12CF70180818B7F8083888181608883D0
:1008100042E060E080E00E949503F60180818E7FD7
:100820008083F801808181608083808188608083FB
:10083000F70180818E7F8083888180618883DF914A
:10084000CF911F910F91FF90EF90DF90CF9008957F
:10085000FC01809157029091580286179707A0F0EB
:100860006115710529F49091E8009E779093E80056
:1008700090E06115710551F4911108C08091E80074
:1008800082FF34C080E00895BC01F2CF80914F0216
:100890008823C1F18530C1F18091E80083FD30C02B
:1008A0008091E80082FDEACF8091E80080FFE1CFEF
:1008B0008091F3002091F200382F6115710519F035
:1008C0002830310558F091E02830310509F090E0EA
:1008D0002091E8002E772093E800CBCF8191809380
:1008E000F100615071092F5F3F4FE7CF80914F02B8
:1008F000882341F0853041F08091E80083FFBECF2E
:1009000081E0089582E0089583E0089508950895B0
:100910000895089580912C0208952FB7F89480913E
:10092000230290912402A0912502B09126022FBFAC
:100930000895E0912002F0912102309721F001907A
:10094000F081E02D099480E008958F929F92AF92FC
:10095000BF92EF92FF920F931F93CF93DF93863056
:10096000B8F5811136C0909180009F7D90938000F2
:100970002E98A0918600B0918700282F30E00E9429
:100980004C1B25E030E040E050E00E94241B890130
:100990009A0180918600909187006CE070E00E943F
:1009A000101B60177107D8F0C80169E070E00E9461
:1009B000101B70938B0060938A00DF91CF911F9181
:1009C0000F91FF90EF90BF90AF909F908F90089500
:1009D00085E090918000906290938000CACF8091D2
:1009E000860090918700E0908600F0908700E0916B
:1009F0008600F0918700C6E0D0E0BE010E94101B87
:100A0000060F171F211D311D4801590185E0880C73
:100A1000991CAA1CBB1C8A95D1F7C701BE010E9474
:100A2000101B9F0150E040E0260F371F411D511D54
:100A3000C501B4010E94241B49015A01E0918600BE
:100A4000F0918700CA01B9010E94001B9B01AC0113
:100A5000DF010E945B1B9B01AC01C501B4010E9438
:100A6000001B2FE096958795779567952A95D1F786
:100A7000009186001091870030E020E006171707EC
:100A80002807390708F095CF60918600709187009C
:100A900090CFFA01811101C0FB01099480911A02E3
:100AA000982F9E7F39F480911A0281708260809322
:100AB0001A0208958430B8F7089580E00895F894F4
:100AC000E82FE295EF70F0E031A1282F2F7081E040
:100AD00090E001C0880F2A95EAF7982F909593230C
:100AE00091A392A1892B82A37894089590912702D3
:100AF00092FF06C0282F28712830F9F4877F846080
:100B000093FF06C0282F28712831F1F4877E846175
:100B10002091280220FF06C0382F38713830D9F4D0
:100B2000877F816021FF06C0282F28712831D1F4EA
:100B3000877E816194FD877E0895282F247124305B
:100B4000F9F68B7F8860DCCF282F2471243101F7E0
:100B50008B7E8861DDCF382F3171313019F78E7F70
:100B60008860E0CF282F2171213121F78E7E8861A6
:100B7000E1CFCF93DF93EC018238910589F1B8F58D
:100B80008133910509F492C028F58932910509F461
:100B900086C08A9709F491C0C11523E5D20708F0F1
:100BA000ACC0C11532E5D30708F011C1C11540E250
:100BB000D40708F090C0C11581E0D80730F5C53AD8
:100BC000D10508F081C0C430D105F8F4C130D10599
:100BD000E1F040C08533910509F45AC0C997E1F6A8
:100BE00080912702837089F0C0EED0E00EC0833E72
:100BF000910599F170F4803E910501F1823E9105D5
:100C000059F68091270282FD21C0CE01DF91CF915C
:100C10000895863E910561F1873E910571F1843E0C
:100C2000910509F0B9CF8091280281FFEECF809124
:100C30002702C7EED0E084FD0DC0E7CF80912702E8
:100C400080FDF4C09091280290FFDFCFC3EED0E08A
:100C500084FFDBCFD0E0C0E0D8CF8091270282FDB7
:100C6000E8C09091280290FDBFCF84FFCECFF2CF95
:100C70008091270283FDDDCFC8CF8091270283FDBD
:100C8000DBC09091280291FFF0CFC4EED0E0BDCF41
:100C90008091270285FFB9CFC9E2D0E0B6CF80911D
:100CA000270285FFB2CFC5E3D0E0AFCF8091270206
:100CB00086FFABCFCAE2D0E0A8CF8091270286FFA3
:100CC000A4CFC1E3D0E0A1CFCE01805E9109089707
:100CD00008F49BCFBFCFC11591E5D90708F072C0CA
:100CE000C11520E5D20708F050C0C11530E4D30784
:100CF00008F4B0CFDF70D06A88CFC11546E5D407BD
:100D0000F0F4C11585E5D80708F077C0C11594E562
:100D1000D90708F06DC0CE018370992721E030E03B
:100D200002C0220F331F8A95E2F7C695C69590E25E
:100D3000C99FE0011124C22BD32BDA6866CFC115FD
:100D40002AE5D20778F4C11539E5D30708F060C069
:100D5000C11548E5D40708F47DCFDC2FCC27C06F40
:100D6000D06A53CFCE0190568115904208F072CFD1
:100D70008D2F8F710E94760590E0982F8827882705
:100D80009F719C012C2BE90141C0CE01E4E09695B6
:100D90008795EA95E1F783702C2F26952695237089
:100DA00040E2249F90011124382B8C2F8370C1E0E6
:100DB000D0E002C0CC0FDD1F8A95E2F7C22BD32B07
:100DC000DC6823CFDC2FCC27C16FD06A1ECFCE01C9
:100DD0008370992721E030E002C0220F331F8A95EB
:100DE000E2F7C695C69580E2C89FE0011124E6CFE0
:100DF000DC2FCC27C46FD06A08CF8C2F0E947605D9
:100E0000C82FD0E0DC2FCC27CC27DF71D062FDCEFD
:100E10008C2F8F700E94760534E0D695C7953A9551
:100E2000E1F7CF709C2FEC01D069EFCEC9E3D0E0A1
:100E3000ECCEC2EED0E0E9CEC6EED0E0E6CE8091B8
:100E4000C10181111092C1010895809590912A02EB
:100E5000982390932A02089590910C019923D1F040
:100E60009091270297FF16C0E82FE695E695E69544
:100E7000EE31E0F4F0E0EC5DFE4F282F277081E0CA
:100E800090E001C0880F2A95EAF780959281892326
:100E900082830895E6E2F1E09191891303C0DF01B6
:100EA00011971C9291E0EC32F907B1F708959091F7
:100EB0000C019923C1F09091270297FF14C0E82FED
:100EC000E695E695E695EE31F8F4F0E0EC5DFE4F40
:100ED000877021E030E001C0220F8A95EAF7828115
:100EE000822B82830895A6E2B1E0EFEF90E02D918E
:100EF000821751F0EF3F19F4211101C0E92F9F5FD4
:100F00009630A9F7EF3F09F408950E2E000CFF0B61
:100F1000EC5DFE4FE6CF80919E0190916D0198139C
:100F200001C008958F5F8770FACFCF92DF92EF9262
:100F3000FF920F931F93CF93DF93E090D001209106
:100F4000C201E22AC7E0D0E0F12C082F10E02FE028
:100F5000929F000D111D11249BE4C92EDC2EC701A8
:100F60000C2E02C0959587950A94E2F780FD0DC07E
:100F70002197A0F7D12C8D2DDF91CF911F910F914B
:100F8000FF90EF90DF90CF900895CC9EF001CD9E22
:100F9000F00D1124E00FF11FEE0FFF1FE455FF4F7E
:100FA000859194910E94B905019711F3E4CFCF93F5
:100FB000DF93EC010E949507EC2FF0E09FE0D99FB2
:100FC000E00DF11D11249BE4899FE00DF11D11241A
:100FD000EE0FFF1FE455FF4F85919491DF91CF9164
:100FE0000C94B9052FE0929F800D1124982F9770D3
:100FF00086958695869523E0829FF0011124E75B14
:10100000FE4F50E040E080E0219130E0092E02C028
:10101000369527950A94E2F721703327042E01C0F4
:10102000220F0A94EAF7822B4F5F5F4F433051053E
:1010300059F708952FE0929F800D1124982F9770F3
:1010400041E001C0440F9A95EAF78695869586950A
:1010500093E0899FF0011124E75BFE4F90E080E070
:1010600070E05191DF0111979B01082E02C0369567
:1010700027950A94E2F72170219525272423252717
:101080002C9301968330910561F70895FC018081CE
:1010900091810E94D70792959F70963091F058F4F5
:1010A000925F9F70923058F4803F19F030F4883E80
:1010B00030F481E008959A5FF4CF843FD1F380E06B
:1010C0000895883EB0F3813FD1F7F3CF81FD02C090
:1010D0002A9A08952A980895CF93DF93EC0180917E
:1010E0000C018823B1F18091270287FF32C060E2B2
:1010F00082E08093E9008FEF9091E800815095FDA8
:1011000006C095ED9A95F1F700008111F5CF809119
:10111000E80085FF1BC080910C0170E050E040E0CA
:10112000811104C050E040E068E070E0CE010E9410
:101130004C038091E8008E778093E80080E2FE0106
:10114000ADE2B2E001900D928A95E1F7DF91CF9187
:10115000089568E081E0CDCF81E08093E00080E2F7
:101160008093D8001092C9008FE19EE40197F1F7B7
:1011700000C0000087E090EBDC018093590290935F
:101180005A02A0935B02B0935C0288E19CE00FB628
:10119000F894A895809360000FBE90936000FFCFF5
:1011A00080911A0280FD0AC0EAEEF1E011821082FD
:1011B0001282339652E0EA31F507C1F76A9A3EB1DE
:1011C0003B7F2EB124604FB7F8948AEE91E0FC018A
:1011D0005191CF0168E02EB9000000C057FF3EB921
:1011E000550F000000C000C000C03EB900C06A95A5
:1011F00091F7F2E08A319F0751F74FBF8FE594E0F6
:101200000197F1F700C000000895682F86E090E094
:101210000C947A1BCF92DF92EF92FF926B017C01CC
:101220000E944E05B701A60188E090E0FF90EF9084
:10123000DF90CF900C948C1B8F929F92AF92BF92B5
:10124000CF92DF92EF92FF920F931F93CF93DF9392
:10125000D82FC62FD42E822EC0901A02C0FEB4C042
:101260008C2D8E7F8230E1F4E42FF0E0E656FC4FC7
:10127000611135C02491F22FE22FC0FE11C0AAEEF9
:10128000B1E08AE192E01196EC9311972C931296BB
:10129000FC93129713968A179B07A9F70E94D00810
:1012A000D0931B02C0931C02D0921D02882009F427
:1012B0008BC060911A0270911B0280911C02909168
:1012C0001D02DF91CF911F910F91FF90EF90DF9062
:1012D000CF90BF90AF909F908F900C940A09E62E0C
:1012E000F12CE4919E2E0E2F10E026E0D29FC0013B
:1012F00011242FEF30E0B9010E94101B8D2F90E0D8
:10130000880F991FF5E5F69FA001F79F500D112456
:10131000841B950BB82EBB0CB80EA9014E195F09A2
:10132000409FC001419F900D509F900D1124F92FB7
:10133000CB9DA0011124452F5527D901A41BB50B26
:10134000A09FA001A19F500DB09F500D1124D90165
:10135000AB19B1095D01AE9CD001AF9CB00DBE9C34
:10136000B00D1124AB2FBB272A1B3B0B209FD001B4
:10137000219FB00D309FB00D11242B2F62307105CD
:10138000A1F050F46115710509F477CF6130710552
:1013900081F0292FF52F71CF6430710569F080F04D
:1013A0006630710509F469CFF4CF2E2FE92FFB2F9A
:1013B00064CF2E2FE52F61CF292FFE2FEB2F5DCF8E
:1013C000E92FF92D252F59CFDF91CF911F910F9143
:1013D000FF90EF90DF90CF90BF90AF909F908F9055
:1013E0000895EAE1F2E0438128E0421B08F440E07E
:1013F00021E0628181810C941C09EAE1F2E04381E1
:1014000028E0420F08F44FEF21E0628181810C94C3
:101410001C09EAE1F2E0628128E0621B08F460E066
:1014200021E0438181810C941C09EAE1F2E06281B0
:1014300028E0620F08F46FEF21E0438181810C9472
:101440001C09EAE1F2E0818121E043816281885058
:101450000C941C09EAE1F2E0818121E04381628180
:10146000885F0C941C0980911E02882319F081501A
:1014700080931E0260911A0270911B0280911C02DF
:1014800090911D020C940A0980911E02833018F479
:101490008F5F80931E0260911A0270911B028091EF
:1014A0001C0290911D020C940A0980911A0280FF7F
:1014B00019C08170826080931A02662351F0609196
:1014C0001A0270911B0280911C0290911D020E94D1
:1014D0000A0920E040911D0260911C0280911B02CC
:1014E0000C941C09089580911A028695815009F484
:1014F00081E061E00C94550A61E081E00C94550AAA
:10150000EAE1F2E083E0808311828FEF82838383BC
:10151000148260817181828193810C940A0969EE41
:101520007EEF90E080E00E94981B60E082E090E017
:101530000E947A1B60E083E090E00E947A1B109288
:10154000C20160E084E090E00E947A1B60E082E2E9
:1015500090E00E947A1B60E085E090E00E947A1B98
:1015600060E086E090E00E947A1B6FEF87E090E0F9
:101570000E947A1B40E050E0BA0188E090E00E94AF
:101580008C1B60E08DE090E00E947A1B40E050E010
:10159000BA0188E190E00E948C1B60E087E190E056
:1015A0000E947A1B40E050E0BA018CE190E00E947A
:1015B0008C1B70E060E080E290E00E94981B40E0AD
:1015C00050E0BA0188E190E00E948C1B40E050E0BE
:1015D000BA018FE090E00E948C1B40E050E0BA011D
:1015E00083E190E00C948C1B90E080E00E94741BDF
:1015F000893E9E4F51F00E948F0A80911F02847095
:10160000896280931F020E94050986E090E00E9493
:10161000661B80931F02803320F08770886280935E
:101620001F0290911F02892F817090FF04C0892FA3
:101630008695869586950C94A5044F925F926F923D
:101640007F928F929F92AF92BF92CF92DF92EF9252
:10165000FF920F931F93CF93DF93CDB7DEB72A97F7
:101660000FB6F894DEBF0FBECDBF8E010F5F1F4FC8
:101670008AE0F80111928A95E9F79DE0E92E91E060
:10168000F92E680122E1422E21E0522E6624639455
:10169000712C41E2842E41E0942EF70181917F016B
:1016A0008F3F09F445C0F894E82FE295EF70F0E021
:1016B00021A18F70A30102C0440F551F8A95E2F744
:1016C000CA01922F982B91A392A18095892382A37E
:1016D000789400C0E2E1F1E021E030E0B12CA12CEF
:1016E00041914F3F09F489C0A42FA295AF70B0E09B
:1016F00090968C9190E04F7002C0959587954A9591
:10170000E2F780FD7AC0C901A82AB92A220F331F47
:101710008E169F0629F7F701319780818F3F11F0D0
:101720000E945F0550EA5A95F1F7F601B182A08256
:10173000F2E0CF0ED11C4E145F0409F0AECF4AE0A8
:1017400050E0B80186EC91E00E94AE1BFF24F394B8
:10175000009709F4F12C892B09F452C08AE0F801B2
:10176000A6ECB1E001900D928A95E1F781E08093BB
:10177000C5010E948D049093C4018093C301209100
:10178000C3013091C4014FB7F89480912302909126
:101790002402A0912502B09126024FBF821B930B19
:1017A000059790F18091C6019091C7019093D50162
:1017B0008093D4018091C8019091C9019093D70181
:1017C0008093D6018091CA019091CB019093D90169
:1017D0008093D8018091CC019091CD019093DB0151
:1017E0008093DA018091CE019091CF019093DD0139
:1017F0008093DC011092C50107C090E080E084CFA7
:101800008091C5018111BBCF8F2D2A960FB6F89418
:10181000DEBF0FBECDBFDF91CF911F910F91FF9023
:10182000EF90DF90CF90BF90AF909F908F907F9080
:101830006F905F904F90089580912A029091C0011F
:10184000892B809324019091C1019923A1F0892BC8
:101850008093240180910C018823D9F18091270283
:1018600087FF37C08EE1E6E2F1E090E0815098F525
:1018700091110E941F0740E250E060EA71E084E2AB
:1018800091E00E94AE1B892B59F180E2E4E2F1E085
:10189000A0EAB1E001900D928A95E1F7E091200273
:1018A000F09121023097E1F080910C01882359F0EA
:1018B0008091270287FF07C0809124018093250132
:1018C00086E0809324010280F381E02D84E291E0A0
:1018D000099486E0C8CF2191222341F29F5FC6CFB1
:1018E000089580910C01E6E2F1E0882369F080918F
:1018F000270287FF09C08EE1DF011D928A95E9F773
:101900001092C0010C941C0C86E0F6CF1F93CF936D
:10191000DF93CDB7DEB7AA970FB6F894DEBF0FBE40
:10192000CDBF81E592E02091F100FC012193CF0130
:10193000F2E089359F07B9F780915202833009F4AC
:1019400070C0B8F4813009F447C0823009F4B3C0E4
:101950008091E80083FF80C28091510290915202F1
:101960009A3008F079C2E92FF0E0E354F44E0C9479
:10197000461B8A3009F48EC08B3009F46FC0893061
:1019800039F780915102813219F780915502909177
:1019900056020297E8F68091E800877F8093E8007E
:1019A0008091E80082FF38C09091F3008091F200AE
:1019B000029731F48091F100813011F0863021F4EA
:1019C0008091F10080932C028091E8008B778093C6
:1019D000E8000E947603BCCF80915102813A09F061
:1019E000B7CF8091E800877F8093E800809155020F
:1019F00090915602892B61F460E28DE292E070E0F2
:101A00000E9428048091E8008B778093E800A0CFA3
:101A100060E090E080E0F3CF80914F028111C0CF71
:101A200097CF80915102813A09F092CF809155026F
:101A300090915602892B09F08BCF8091E800877F27
:101A40008093E8008091E80080FFFCCF80910C013A
:101A50008093F1008091E8008E77B9CF8091510298
:101A6000813209F075CF8091550290915602892BF1
:101A700009F06ECF8091E800877F8093E8000E9494
:101A800076038091530280930C0110922A020E94E7
:101A9000710C5ECF80915102813209F059CF809153
:101AA000E800877F8093E8000E94760380915402CB
:101AB00080932B024DCF80915102813A09F048CF9B
:101AC0008091E800877F8093E8008091E80080FFA4
:101AD000FCCF80912B02BCCF803899F0823809F07E
:101AE000BBC1809155028F70873008F0B5C18093DB
:101AF000E9008091EB0085FB882780F91092E900CE
:101B000006C080914D0290914E0291118260909199
:101B1000E800977F9093E8008093F1001092F10025
:101B20008091E8008E7794C1882309F482C18230C5
:101B300009F092C180915302811185C180915502B3
:101B40008F702FEF280F263008F086C18093E900B0
:101B50002091EB0020FF77C1933031F48091EB00AE
:101B600080628093EB006FC19091EB009061909345
:101B7000EB0021E030E001C0220F8A95EAF72093C4
:101B8000EA001092EA008091EB008860EACF8111B0
:101B900063C1109153021F778091E3008078812BFD
:101BA0008093E3008091E800877F8093E8000E94A3
:101BB00076038091E80080FFFCCF8091E30080688D
:101BC0008093E30082E0111183E080934F0244C1CF
:101BD0008058823008F040C18091530290915402A5
:101BE0008C3D23E09207A1F583E08A838AE2898312
:101BF0004FB7F894DE01139620E03EE051E2E32F68
:101C0000F0E050935700E49120FF03C0E295EF709D
:101C10003F5FEF708E2F90E0EA30C0F0C7968D9353
:101C20009D932F5F243159F74FBF8091E800877F44
:101C30008093E8006AE270E0CE0101960E942804D9
:101C40008091E8008B778093E80006C1C096E7CFCB
:101C50004091550250915602292F332723303105E8
:101C600009F444C078F52130310509F46FC08BE3E5
:101C700090E0E5E1F5E02230310509F0EDC020917A
:101C8000E800277F2093E800209157023091580206
:101C90008217930708F49C0140E02115310509F0F3
:101CA00064C0411162C08091E80082FDC9CF80917B
:101CB0004F02882329F2853019F28091E80083FFD2
:101CC000F2CFBECF21323105A9F12232310509F020
:101CD000C3C04115510509F443C04130510509F015
:101CE000BBC08BE390E0EAE9F4E0C9CF99278130EB
:101CF0009105C1F0009759F0029709F0ADC0E2E6F6
:101D0000F5E0E4918E2F90E0E2E6F5E007C0E0E830
:101D1000F5E0E4918E2F90E0E0E8F5E0009709F41B
:101D20009BC0ADCFEEE6F5E0E4918E2F90E0EEE6BD
:101D3000F5E0F4CF4115510571F04130510509F03E
:101D40008BC089E090E0E0E4F5E099CF82E190E09B
:101D5000E0E5F5E094CF89E090E0E7E2F5E08FCFB1
:101D600080E490E0E5EDF4E08ACF80914F02882393
:101D700009F466CF853009F463CF8091E80083FDD4
:101D80005FCF8091E80082FD8ECF8091E80080FFD8
:101D900084CF9091F3008091F2002115310519F064
:101DA0008830910550F041E0089709F040E08091BB
:101DB000E8008E778093E80070CF44914093F10063
:101DC0003196215031090196E8CF803809F044C09E
:101DD0008091E800877F8093E80080915002809393
:101DE000F1009ECE811138C0109153021230A0F53F
:101DF0008091E800877F8093E800109350020E9452
:101E00007603112311F084E005C08091E30087FD83
:101E1000FACF81E080934F0242E061EC81E00E94C2
:101E2000950342E261EC82E00E94950380914F02AB
:101E300013C080915302813079F481E0933009F02E
:101E400080E080934E021092E9008091E800877F45
:101E50008093E8000E9476038091E80083FF0AC027
:101E60008091E800877F8093E8008091EB0080629A
:101E70008093EB00AA960FB6F894DEBF0FBECDBFDD
:101E8000DF91CF911F9108958093D0011092C001EE
:101E90000C941C0C21E030E001C0220F8A95EAF777
:101EA00020958091D00182230C94440F90919F0142
:101EB0008095892380939F01282F277091F4282FE4
:101EC000082E000C330B9217130659F0909128023C
:101ED00092FD07C08595859585950E944A0F1092C1
:101EE0009F010895CF93C0912802C2FB992790F9D2
:101EF000981799F080FBC2F9C093280260912702DD
:101F000084E090E00E947A1B6C2F82E290E00E94B5
:101F10007A1B82E0CF910C94560FCF91089521E067
:101F200030E001C0220F8A95EAF78091D001822B20
:101F30000C94440F8093C2011092C0010C941C0CAD
:101F4000882321F00E9425070C941C0C08958823F7
:101F500039F090912A02982B90932A020C941C0C31
:101F60000895882309F46DC0823871F40E949904A1
:101F700081FF67C089E30E9457070E941C0C89E318
:101F80000E942C070C941C0C833859F40E9499046D
:101F900080FF57C083E50E9457070E941C0C83E511
:101FA000EFCF843859F40E94990482FF4AC087E435
:101FB0000E9457070E941C0C87E4E2CF9CEF980F09
:101FC000913AF0F290E2980F983050F4877091E0D7
:101FD00001C0990F8A95EAF7892F0E942507D2CF71
:101FE0009BE5980F9330B0F48091450190914601A4
:101FF000892B39F11092460110924501E09120029F
:10200000F09121023097E9F00680F781E02D90E011
:1020100080E00994885A8731A0F48091470190911B
:102020004801892B71F01092480110924701E0910C
:102030002002F0912102309721F00084F185E02DFB
:10204000E6CF0895CF93C82F882309F48CC0823837
:10205000C1F40E94990481FD86C089E30E9457075C
:102060000E941C0C2FEF81EE94E0215080409040A4
:10207000E1F700C0000089E30E942C07CF910C9487
:102080001C0C8338A1F40E94990480FD6CC083E588
:102090000E9457070E941C0C2FEF81EE94E0215004
:1020A00080409040E1F700C0000083E5E5CF843830
:1020B000A1F40E94990482FD56C087E40E9457074C
:1020C0000E941C0C2FEF81EE94E021508040904044
:1020D000E1F700C0000087E4CFCF8CEF8C0F813A8E
:1020E00088F580910C01882301F18091270287FFF8
:1020F0001CC0EC2FE695E695E695F0E0EC5DFE4F12
:10210000828190E04C2F477021E030E002C0220F26
:10211000331F4A95E2F782239323892B79F08C2F82
:102120000E942C070E941C0C09C0E6E2F1E081919C
:10213000C817A9F321E0EC32F207C9F78C2F0E94EF
:1021400057079CCF80E28C0F883068F4C77021E07D
:1021500030E001C0220FCA95EAF780912A02822B53
:1021600080932A028BCFCF9108958F929F92AF9246
:10217000BF92CF92DF92EF92FF920F931F93CF9374
:10218000DF9300D000D00F92CDB7DEB76C01FC0119
:1021900083819481892B39F01081F180812F8F21E7
:1021A0008F3F09F032C40F900F900F900F900F9057
:1021B000DF91CF911F910F91FF90EF90DF90CF9023
:1021C000BF90AF909F908F9008950E949507082F21
:1021D000682F89819A810E941A08E12FF0E02FE090
:1021E000F29EE00DF11D11243BE4039FE00DF11D73
:1021F0001124EE0FFF1FE455FF4F25913491F60196
:102200008281273AFDE53F0799F0283A9DE5390795
:10221000D9F1811142C02631FCE53F0709F0F0C039
:10222000809144018111EAC089E20E942C0756C0C6
:10223000882341F061E083E090E00E947A1B81E016
:102240000E949A0F80919F01877009F4ACCFF6012C
:102250008281882309F4A7CF8091280282FDA3CF31
:1022600082E00F900F900F900F900F90DF91CF9121
:102270001F910F91FF90EF90DF90CF90BF90AF90A4
:102280009F908F900C94560F8823E1F262E083E0D8
:1022900090E00E947A1B82E0D3CF2E3BECE53E0714
:1022A00009F45FC0F0F42C3B8CE53807D1F12D3BED
:1022B0009CE5390709F44DC026319CE5390709F042
:1022C0008CC180912A028A7A91E009F490E090937F
:1022D0004401811191C089E20E9457070E941C0CA1
:1022E000B1CF203CECE53E0709F46BC008F455C0C3
:1022F000213C8CE5380701F790911F02892F8695C4
:10230000869586958F5F8F719770863008F071C0C3
:10231000880F880F880F892B80931F0280911F02DE
:1023200028C080911F028770886280931F02887F77
:1023300091E009F490E080911F0290FB80F9809376
:102340001F0285E00E94A50480911F020E940509DA
:1023500079CF80911F0287708E7F80931F0280E06B
:10236000F1CF80911F02982F987F79F08850809349
:102370001F02887F91E009F490E080911F0290FB9A
:1023800080F980931F020E94050980911F028695A3
:10239000869586950E94A50455CF80911F02982F9F
:1023A000969596959695953040F49F5F990F990F65
:1023B000990F8770892B80931F0280911F02816083
:1023C000E0CF80911F0280FF07C08E7F80931F02A5
:1023D0000E94050980E0DECF80FD34CF81608093CC
:1023E0001F02813019F489E080931F0280911F023F
:1023F000CACF90931F0292CF85E36ECF85E315CFAE
:1024000080912A0282722A3CECE53E0709F4DDC085
:1024100008F080C0263C9CE5390709F4D1C008F0DB
:1024200063C0243CFCE53F0709F4BEC008F0C3C00C
:10243000233C3C4509F493C0F6018281108101815F
:10244000882309F4FFC0812F902F0E949507F82E52
:10245000682F812F902F0E941A08E12FF0E02FE0C3
:10246000029FE00DF11D11243BE4F39EE00DF11DF0
:102470001124EE0FFF1FE455FF4F859194910E94A8
:10248000B9058C01882EF601E280B580B2945FE038
:10249000B52280919F018770C1F0AE2CEE20B1F083
:1024A000812F807F803421F080E2800F883068F0B7
:1024B0008091280282FD09C082E00E94560F80911F
:1024C0009F018770AA24A3948111A12C912E92942C
:1024D0003FE09322FBE0F91508F422C1E92DF0E07A
:1024E000E953F44E0C94461B49E05AE065E17AE06A
:1024F000283CFCE53F0709F45BC04AE25AE061E290
:102500007AE0293C3C4508F453C045E15AE069E0D3
:102510007AE04EC02E3CECE53E0709F45BC0A8F41F
:1025200043E35AE064E47AE02C3C9CE5390709F483
:102530003FC04DEF59E061EF79E02D3C3C45C0F1E3
:1025400044E45AE063E37AE033C0273DFCE53F070B
:1025500008F478CE2E353D4509F474CE6DCF8091C8
:102560001A0280FF19C08E7F80931A0260911A02AE
:1025700070911B0280911C0290911D020E940A0919
:102580009FEFE0E7F2E09150E040F040E1F700C05B
:1025900000000E94D00856CE816080931A0261E04C
:1025A00086950E94550A4ECE43E75AE06CE77AE0E2
:1025B0000E94490547CE4CE75AE063E77AE0F8CF3E
:1025C00041E25AE06AE27AE0F3CF41EF59E06DEF81
:1025D00079E0EECF61E081E0E4CF2B358DE538077F
:1025E00069F158F42115ECE53E07C9F02F3D3C4553
:1025F00009F022CF0E948F0A25CE2C358DE53807B1
:10260000F9F02D353D4509F017CF8091280282FB66
:10261000882780F991E089270E94720F0DCF1092D0
:102620002A020E94710CEFEFF4E32CE0E150F0403D
:102630002040E1F700C000000E94AC0881E0ECCF30
:1026400080E0EACF812F902F0E94F207F82E05CF6D
:10265000212F2F70F22E107F19F0F29420EFF2222A
:10266000EE20B9F0FF2069F080E2800F883010F092
:10267000811009C080912A02F82AF0922A020E9451
:102680001C0C802F4BC08091C001F82AF092C00131
:10269000F6CF802F0E94B10FFF2009F441C0005EE9
:1026A000083010F0811004C08F2D0E94250706C04D
:1026B000F0948091C001F822F092C0010E941C0C9D
:1026C0002FC0312F3F70F32E107F103219F0F2948B
:1026D00090EFF922882089F081E0881609F48AC0F9
:1026E000EE2009F494C0BB2009F48AC0F60185816C
:1026F00080FFC7CF8F70858383C02091280222FF7F
:1027000056C0EE2009F44CC0FF2039F080912A0217
:10271000F82AF0922A020E941C0C80E00E942210EB
:10272000E92DE850FF0B349720F40E9499040E9491
:102730006608AA20A9F080919F0180FD11C0F601D2
:1027400012828595859585950E948F0FC6010E94FE
:10275000B51080919F018595859585950E944A0FBA
:1027600085E0F601DE01119601900D928A95E1F760
:1027700089819A810E94F2079A81E981F0E02FE035
:10278000929FE00DF11D11243BE4839FE00DF11DAC
:102790001124EE0FFF1FE455FF4F8591949103CD57
:1027A00080E00E94B10FFF2009F4BACF7DCFEE2068
:1027B000A1F09091C101892F8F29B11003C00E940F
:1027C000A70FAECFE1E0BE12FACF22FDA9CF981736
:1027D00009F4A6CF8093C101A3CFB11006C00E9417
:1027E0001F078F2D0E94A00F9BCFF1E0BF1609F4A9
:1027F00097CFF5CFEE2031F025E02B1508F490CFE0
:102800008F2DDDCF34E03B1508F48ACFEACFBB2013
:1028100041F3F9E38F12F2C02FEF37EE83E021503E
:1028200030408040E1F700C00000E8C0812F837095
:1028300089F5E11075CF402F429546954770440FBA
:10284000440F802F8F70042E01C0880F0A94EAF77E
:10285000202F207104FF07C02FE030E001C0220FBD
:102860004A95EAF72095169516951370123069F07F
:1028700050F43091C201113029F0822B83230E9441
:102880009A0F4ECF832B822BFACF282B8091C20137
:102890008227F5CF8695EE2011F0812F8170882355
:1028A00009F43ECF402F429546954770440F440FA0
:1028B000802F8F70042E01C0880F0A94EAF7202F12
:1028C000207104FF07C02FE030E001C0220F4A95BD
:1028D000EAF72095169516951370123069F050F4AA
:1028E0003091D001113029F0822B83230E94440FB4
:1028F00017CF832B822BFACF282B8091D0018227F0
:10290000F5CF1F70EE2029F0812F0E948F0F802FAE
:1029100056CF802F0E94A00F812F0E944A0F00CF18
:10292000802F92EF8916A9F1981570F0E0EF8E16BE
:10293000D1F0F1EF8F1691F0EE2009F45AC0B110EA
:10294000A0CE812F8F7129C023EF821649F134EF79
:102950008312F2CF8091280282FF2DC0812F8F71C8
:10296000EE20D9F21AC0EE2079F084E08B1508F43D
:10297000D7CE1F7181E090E001C0880F1A95EAF769
:102980009091D0018927B2CF95E09B1508F4C8CE6D
:10299000F0CF812F8F71E110C0CF0E948F0FC0CE7A
:1029A00080E0EE2009F4A2CF1F7181E001C0880F02
:1029B0001A95EAF79BCFEE2089F01F71812F0E94B4
:1029C0008F0F8091280282FD07C0E8E01E9FC001A2
:1029D0001124836080939F01812FDFCF81E00E94CB
:1029E000560FF1E0FB1508F09BCE82E00E94560FD7
:1029F00097CEBB2039F0893309F40ECF802F0E9487
:102A0000B10F8ECE812F8F7188CF85E0DE011196B8
:102A100001900D928A95E1F7F601228189819A81D0
:102A20002111D3CB0E94F207082FD7CB1F93CF934E
:102A3000DF9380916C01807FA9F4809169018823E4
:102A400089F080919E01D0916D0160916701709134
:102A50006801A0916A01B0916B01C62FC72316E0EF
:102A6000D81304C0DF91CF911F91089590E0109783
:102A700011F0CF3F19F401968770F2CF189F9001A3
:102A8000199F300D1124F901E259FE4F418147137E
:102A9000F2CF40814613EFCF42814111ECCF438109
:102AA00054814A1B5B0B483C510528F780916C010F
:102AB0008F70806180936C01F901ED58FE4F808129
:102AC0008F708061808387E691E00E94B510DF916E
:102AD000CF911F910C948B07AF92BF92CF92DF9250
:102AE000EF92FF920F931F93CF93DF93CDB7DEB793
:102AF00061970FB6F894DEBF0FBECDBF8C0185E0A5
:102B0000F801DE011D9601900D928A95E1F7F8011A
:102B1000E28087E6A82E81E0B82E60916A0170916C
:102B20006B016115710509F432C190916701409103
:102B30006801892F84238F3F09F429C120813181C5
:102B4000C380D480F0906901F601E61BF70BFF20EB
:102B500009F4E8C080916C01582F507FE83CF105E2
:102B600008F0ABC0511177C0FE2C431321C0921363
:102B70001FC0E1101DC08F70806180936C01C50182
:102B80000E94B51080916C01F80185838F2D6196AC
:102B90000FB6F894DEBF0FBECDBFDF91CF911F916E
:102BA0000F91FF90EF90DF90CF90BF90AF9008957E
:102BB000CD2829F0822F83238F3F09F003C180E0C5
:102BC000F82FF170DF2E80FF3CC080919E01409174
:102BD0006D0156E0841315C02D873E878D859E8537
:102BE0000E94D707292F22952F702230F0F0243031
:102BF00018F59F70F1F0F8019581907FD1F4D12CF8
:102C00001EC090E0589FF001599FF00D1124E25929
:102C1000FE4F6181361306C06081261303C06281B6
:102C2000E6120FC001968770D5CF9F7011F08823F0
:102C300031F3805E883018F3C8010E94B510FD2C76
:102C4000A5CFEE2009F4A2CF80916C018160809322
:102C50006C01F12C9BCF431306C0921304C0F80102
:102C6000EE2009F479C0C8010E944608882309F1C2
:102C7000EE20F9F080916C01803270F020916701B4
:102C80003091680138872F831986DB86CA868C8746
:102C9000CE0107960E94B51086E0F801A7E6B1E0E4
:102CA00001900D928A95E1F70E941615FF24F39486
:102CB0006DCFC8010E94B510F9CF51110AC087E647
:102CC00091E00E94B51086E0F50111928A95E9F72E
:102CD000C0CF43130FC092130DC0E1100BC0F80119
:102CE0008583C8010E94B51086E0F50111928A958E
:102CF000E9F74CCFC8010E9446088823D1F2EE20A4
:102D0000C1F280916C01803238F2209167013091DC
:102D100068013A8329831B82DD82CC828E83CE01B7
:102D20000196B8CFE83CF105F8F6FE2CEE2009F24A
:102D300043131FC092131DC080916C0180FD10C011
:102D4000982F907F69F0F8018583903F31F0982F9C
:102D5000907F905F8F70892B8583C8010E94B5108A
:102D600086E0F801A7E6B1E001900D928A95E1F7BF
:102D70000DCFC8010E94460881118ECF80916C0151
:102D8000816080936C01C8010E94B510FFCEEE20D7
:102D900009F48FCFC8010E944608F82E882309F451
:102DA00088CF86E0F801A7E6B1E001900D928A9500
:102DB000E1F780916701909168010E94D7070E9416
:102DC0001615E4CE81E08E25FBCE1F93CF93DF93C3
:102DD000CDB7DEB767970FB6F894DEBF0FBECDBF95
:102DE0004B8B5C8B6D8B7E8B8F8B61111092C00136
:102DF0001A8A198A85E0FE017396DE011D960190FC
:102E00000D928A95E1F786E0FE013D96DE01179668
:102E100001900D928A95E1F7CE0107960E946C15FC
:102E2000882389F016E080919E0190916D018913AD
:102E30004BC067960FB6F894DEBF0FBECDBFDF91D3
:102E4000CF911F91089586E0FE013796DE0111961D
:102E500001900D928A95E1F78A859B85892B11F364
:102E60008F81988589238F3FE9F220916D0130E0B1
:102E7000C90101968770992740919E01481719064C
:102E800081F410922A020E94710C10926D0110922E
:102E90009E0186E0E7E6F1E0DF011D928A95E9F701
:102EA000C1CF96E0929FD001939FB00D1124A259FB
:102EB000BE4FFE01319601900D929A95E1F78093F5
:102EC0006D010E948B07AECF819FC00111248259F2
:102ED0009E4F0E946C15882309F4ABCF80919E0110
:102EE00090E001968770992780939E019CCF1F9256
:102EF0000F920FB60F9211242F933F934F935F932E
:102F00006F937F938F939F93AF93BF93CF93DF93F1
:102F1000EF93FF93D091E900DF708091EC00C82F10
:102F2000C17080FDC0E81092E9008091F000877FB9
:102F30008093F00078940E94860C1092E9008091B2
:102F4000F00088608093F000CD2BCF70C093E90033
:102F5000FF91EF91DF91CF91BF91AF919F918F91B1
:102F60007F916F915F914F913F912F910F900FBE85
:102F70000F901F9018951F920F920FB60F92112469
:102F80002F933F934F935F936F937F938F939F9371
:102F9000AF93BF93EF93FF938091E10082FF09C04D
:102FA0008091E20082FF05C08091E1008B7F8093D9
:102FB000E1008091DA0080FF24C08091D80080FF7A
:102FC00020C08091DA008E7F8093DA008091D90052
:102FD00080FF9DC080E189BD82E189BD09B400FE0A
:102FE000FDCF81E080934F0280912902811109C0B9
:102FF0000E94FC020E94C7038091E20084608093DB
:10300000E2008091E10080FF17C08091E20080FF24
:1030100013C08091E2008E7F8093E2008091E200F5
:1030200080618093E2008091D80080628093D80014
:1030300019BC85E080934F028091E10084FF2BC092
:103040008091E20084FF27C080E189BD82E189BDD3
:1030500089B5982F917080FFFBCF8091D8008F7D2C
:103060008093D8008091E1008F7E8093E100809171
:10307000E2008F7E8093E2008091E2008160809385
:10308000E20080915002882309F447C084E08093D5
:103090004F0280914F028091E10083FF27C0809111
:1030A000E20083FF23C08091E100877F8093E100ED
:1030B00082E080934F02109250028091E1008E7F57
:1030C0008093E1008091E2008E7F8093E200809106
:1030D000E20080618093E20042E060E080E00E94D4
:1030E00095038091F00088608093F000FF91EF914C
:1030F000BF91AF919F918F917F916F915F914F9110
:103100003F912F910F900FBE0F901F90189519BCF3
:1031100010924F021092290274CF8091E30087FD34
:1031200093E090934F02B5CF78941F921FB61F92F1
:1031300011248F939F93AF93BF938091230290911B
:103140002402A0912502B09126020196A11DB11D75
:103150008093230290932402A0932502B093260229
:10316000BF91AF919F918F911F901FBE1F90189597
:103170001F921FB61F9211248F939F93AF93BF93FB
:1031800080912202811113C0809123029091240228
:10319000A0912502B09126024196A11DB11D8093F8
:1031A000230290932402A0932502B0932602BF919C
:1031B000AF919F918F911F901FBE1F901895CDB713
:1031C000DEB72A970FB6F894DEBF0FBECDBF84B727
:1031D000877F84BF0FB6F894A895809160008861BE
:1031E00080936000109260000FBE80E890E00FB600
:1031F000F89480936100909361000FBE85B780685A
:1032000085BF85B7806885BF8DE595E090932301E4
:10321000809322010E94FC020E94C7038091E20079
:1032200084608093E200789480914F028823A1F01B
:103230001091E9001F709091EC00892F817090FD32
:1032400080E8182B1092E9008091E80083FD0E942D
:10325000860C1F701093E90082E084BD93E095BD59
:103260009AEF97BD80936E000DE011E0F2E1EF2E32
:10327000F1E0FF2ED8018D918D018F3F11F00E945A
:103280005F05E016F106B1F702E111E0E1E2EE2E92
:10329000E1E0FE2EF80181918F018F3F11F00E9435
:1032A0005F05E016F106B1F78AE0E4EDF1E0DF0139
:1032B000282F1D922A95E9F7E6ECF1E0DF011D9237
:1032C0008A95E9F790E080E00E94741B893E9E4F4A
:1032D00011F00E948F0A82E090E00E94661B8093AA
:1032E000DE0184E090E00E94661B182F82E290E0ED
:1032F0000E94661B982F812F9093280280932702AB
:103300000E941D0BEFE3FCE93197F1F700C00000CC
:103310000E941D0B8091D40180FF08C06FEF7FEFEA
:1033200090E080E00E94981B0E94AC0883E090E04F
:103330000E94661B0E949A0F229A2A9A269A2E9819
:1033400082E28093800089E1809381008FEF9FEF7C
:1033500090938700809386000E94F40A0E94F40AEA
:103360008091D101811134C090E080E00E94741BF3
:10337000893E9E4F21F00E948F0A0E94800A88E0B9
:1033800090E00E946E1B60931A0270931B02809360
:103390001C0290931D026E7F71F40E94800A88E0E7
:1033A00090E00E946E1B60931A0270931B02809340
:1033B0001C0290931D020E944E0580911A0280FF0C
:1033C00004C060E086950E94550A81E08093D10197
:1033D00080E091E0909321028093200268E1C62E64
:1033E000D12C70E4B72EAA24A39450E1952E80919D
:1033F0004F0212E1853009F4AEC00E941D0B8823F4
:1034000059F08FB7F89440912302509124026091B3
:103410002502709126028FBFA4EDB1E0EFEDF1E03F
:1034200010E000E0702F8D919D912191319128172E
:10343000390709F4B6C02827392760E0EE24E39461
:10344000F12CA70142235323452B09F4A4C069831F
:103450007A8397012823392391E0232B09F490E004
:103460009B830E948D048160782F9D838C8349818A
:103470005A816B818D810E94E516000F111FF801A2
:10348000E152FE4F80819181E826F926F182E082A7
:103490000E9499049091E901891709F4A8CF8093BB
:1034A000E9010E946608A1CF80914F02843009F49F
:1034B00041C080E00E94A50480E00E9466088091DF
:1034C000D301811116C0A092D30180911A02982FC6
:1034D00091709093D2018E7F80931A022FEF80E734
:1034E00092E0215080409040E1F700C000000E942F
:1034F000D008109222020FB6F894A895C0926000EE
:103500000FBEB092600083B7817F846083BF83B7B2
:10351000816083BF7894889583B78E7F83BF0FB611
:10352000F894A89580916000886180936000109263
:1035300060000FBE80914E02882369F00E941D0B2F
:10354000E4EDF1E081919191892B09F041C0A1E076
:10355000EE3DFA07B9F780914F02853009F4A4CF08
:1035600010922A020E94710C0E94F40A0E9499048F
:103570000E9466081092D3018091D201882309F439
:103580003CCF80911A02816080931A0260E0869598
:103590000E94550A32CF6F5FEE0CFF1C6F3009F0AE
:1035A00050CF0F5F1F4F0530110509F03BCF8FEF54
:1035B0008E838F8318860E948D048160782F9A876E
:1035C00089874E815F8168858A850E94E51660CF74
:1035D00099BC19BD09B400FEFDCF8091D8008F7D44
:1035E0008093D8008091E00082608093E000809119
:1035F000E00081FDFCCF10922A020E94710CABCF3B
:10360000DB018F939F930E945B1BBF91AF91A29FA1
:10361000800D911DA39F900DB29F900D11240895D0
:10362000AA1BBB1B51E107C0AA1FBB1FA617B707E8
:1036300010F0A61BB70B881F991F5A95A9F7809504
:103640009095BC01CD010895A1E21A2EAA1BBB1BC7
:10365000FD010DC0AA1FBB1FEE1FFF1FA217B3075E
:10366000E407F50720F0A21BB30BE40BF50B661F74
:10367000771F881F991F1A9469F760957095809538
:1036800090959B01AC01BD01CF010895EE0FFF1F86
:103690000590F491E02D0994A29FB001B39FC00161
:1036A000A39F700D811D1124911DB29F700D811D6E
:1036B0001124911D08950E944C1BA59F900DB49F4D
:1036C000900DA49F800D911D11240895F999FECFAE
:1036D00092BD81BDF89A992780B50895A6E1B0E022
:1036E00044E050E00C94A01BA8E1B0E042E050E0C0
:1036F0000C94A01B262FF999FECF92BD81BDF89A9C
:10370000019700B4021639F01FBA20BD0FB6F89425
:10371000FA9AF99A0FBE08950396272F0E947B1BF1
:103720000E947A1B252F0E947B1B242F0C947B1B4D
:103730000196272F0E947B1B0C947A1BDC01CB0186
:10374000FC01F999FECF06C0F2BDE1BDF89A3196B1
:1037500000B40D9241505040B8F70895FB01DC01D0
:1037600004C08D910190801921F441505040C8F758
:10377000881B990B0895F894FFCF6C0D940D2C0FB6
:10378000940D2C0FC70DE80D2C0FE50EF20E28132B
:103790002813611361139013901390139013161450
:0637A00081149014901446
:1037A6008A046C088904870488048604019091922F
:1037B6009395F0F1C6676637943130353497963372
:0237C600F4000D
:00000001FF
